{
  "_format": "hh-sol-artifact-1",
  "contractName": "MarketBase",
  "sourceName": "src/contracts/Market/MarketBase.sol",
  "abi": [
    {
      "inputs": [],
      "stateMutability": "nonpayable",
      "type": "constructor"
    },
    {
      "anonymous": false,
      "inputs": [
        {
          "indexed": true,
          "internalType": "uint256",
          "name": "itemId",
          "type": "uint256"
        },
        {
          "indexed": true,
          "internalType": "address",
          "name": "ntfContract",
          "type": "address"
        },
        {
          "indexed": true,
          "internalType": "uint256",
          "name": "tokenId",
          "type": "uint256"
        },
        {
          "indexed": false,
          "internalType": "address payable",
          "name": "seller",
          "type": "address"
        },
        {
          "indexed": false,
          "internalType": "address payable",
          "name": "owner",
          "type": "address"
        },
        {
          "indexed": false,
          "internalType": "uint256",
          "name": "price",
          "type": "uint256"
        },
        {
          "indexed": false,
          "internalType": "uint256",
          "name": "lastPrice",
          "type": "uint256"
        },
        {
          "indexed": false,
          "internalType": "bool",
          "name": "sold",
          "type": "bool"
        }
      ],
      "name": "MarketItemCreated",
      "type": "event"
    },
    {
      "anonymous": false,
      "inputs": [
        {
          "indexed": true,
          "internalType": "address",
          "name": "previousOwner",
          "type": "address"
        },
        {
          "indexed": true,
          "internalType": "address",
          "name": "newOwner",
          "type": "address"
        }
      ],
      "name": "OwnershipTransferred",
      "type": "event"
    },
    {
      "inputs": [
        {
          "internalType": "address",
          "name": "_nftContract",
          "type": "address"
        },
        {
          "internalType": "uint256",
          "name": "_tokenId",
          "type": "uint256"
        },
        {
          "internalType": "uint256",
          "name": "_price",
          "type": "uint256"
        }
      ],
      "name": "createMarketItem",
      "outputs": [],
      "stateMutability": "payable",
      "type": "function"
    },
    {
      "inputs": [
        {
          "internalType": "address",
          "name": "_nftContract",
          "type": "address"
        },
        {
          "internalType": "uint256",
          "name": "_itemId",
          "type": "uint256"
        }
      ],
      "name": "createMarketSale",
      "outputs": [],
      "stateMutability": "payable",
      "type": "function"
    },
    {
      "inputs": [],
      "name": "getCurrentItemsCount",
      "outputs": [
        {
          "internalType": "uint256",
          "name": "",
          "type": "uint256"
        }
      ],
      "stateMutability": "view",
      "type": "function"
    },
    {
      "inputs": [],
      "name": "getCurrentItemsSoldCount",
      "outputs": [
        {
          "internalType": "uint256",
          "name": "",
          "type": "uint256"
        }
      ],
      "stateMutability": "view",
      "type": "function"
    },
    {
      "inputs": [],
      "name": "getListingPrice",
      "outputs": [
        {
          "internalType": "uint256",
          "name": "",
          "type": "uint256"
        }
      ],
      "stateMutability": "view",
      "type": "function"
    },
    {
      "inputs": [],
      "name": "owner",
      "outputs": [
        {
          "internalType": "address",
          "name": "",
          "type": "address"
        }
      ],
      "stateMutability": "view",
      "type": "function"
    },
    {
      "inputs": [],
      "name": "renounceOwnership",
      "outputs": [],
      "stateMutability": "nonpayable",
      "type": "function"
    },
    {
      "inputs": [
        {
          "internalType": "address",
          "name": "_nftContract",
          "type": "address"
        },
        {
          "internalType": "uint256",
          "name": "_itemId",
          "type": "uint256"
        },
        {
          "internalType": "uint256",
          "name": "_price",
          "type": "uint256"
        }
      ],
      "name": "resellMarketItem",
      "outputs": [],
      "stateMutability": "payable",
      "type": "function"
    },
    {
      "inputs": [
        {
          "internalType": "uint256",
          "name": "_listingPrice",
          "type": "uint256"
        }
      ],
      "name": "setListingPrice",
      "outputs": [],
      "stateMutability": "nonpayable",
      "type": "function"
    },
    {
      "inputs": [
        {
          "internalType": "address",
          "name": "newOwner",
          "type": "address"
        }
      ],
      "name": "transferOwnership",
      "outputs": [],
      "stateMutability": "nonpayable",
      "type": "function"
    }
  ],
  "bytecode": "0x60806040526658d15e1762800060065534801561001b57600080fd5b5061003861002d61008560201b60201c565b61008d60201b60201c565b6001808190555033600560006101000a81548173ffffffffffffffffffffffffffffffffffffffff021916908373ffffffffffffffffffffffffffffffffffffffff160217905550610151565b600033905090565b60008060009054906101000a900473ffffffffffffffffffffffffffffffffffffffff169050816000806101000a81548173ffffffffffffffffffffffffffffffffffffffff021916908373ffffffffffffffffffffffffffffffffffffffff1602179055508173ffffffffffffffffffffffffffffffffffffffff168173ffffffffffffffffffffffffffffffffffffffff167f8be0079c531659141344cd1fd0a4f28419497f9722a3daafe3b4186f6b6457e060405160405180910390a35050565b6116f5806101606000396000f3fe6080604052600436106100915760003560e01c80638da5cb5b116100595780638da5cb5b146101485780638eb6ee4a14610173578063c23b139e1461018f578063e0e2bd0d146101ab578063f2fde38b146101d657610091565b806312e85585146100965780631829c054146100c157806358eb2df5146100ec578063715018a6146101085780637c726b691461011f575b600080fd5b3480156100a257600080fd5b506100ab6101ff565b6040516100b891906113ec565b60405180910390f35b3480156100cd57600080fd5b506100d6610209565b6040516100e391906113ec565b60405180910390f35b6101066004803603810190610101919061105c565b61021a565b005b34801561011457600080fd5b5061011d6105e6565b005b34801561012b57600080fd5b50610146600480360381019061014191906110ab565b61066e565b005b34801561015457600080fd5b5061015d6106f4565b60405161016a9190611214565b60405180910390f35b61018d6004803603810190610188919061105c565b61071d565b005b6101a960048036038101906101a49190611020565b610a4c565b005b3480156101b757600080fd5b506101c0610d78565b6040516101cd91906113ec565b60405180910390f35b3480156101e257600080fd5b506101fd60048036038101906101f89190610ff7565b610d89565b005b6000600654905090565b60006102156003610e81565b905090565b60026001541415610260576040517f08c379a00000000000000000000000000000000000000000000000000000000081526004016102579061138c565b60405180910390fd5b6002600181905550600081116102ab576040517f08c379a00000000000000000000000000000000000000000000000000000000081526004016102a2906113ac565b60405180910390fd5b60065434146102ef576040517f08c379a00000000000000000000000000000000000000000000000000000000081526004016102e69061136c565b60405180910390fd5b6102f96002610e8f565b60006103056002610e81565b90506040518061010001604052808281526020018573ffffffffffffffffffffffffffffffffffffffff1681526020018481526020013373ffffffffffffffffffffffffffffffffffffffff168152602001600073ffffffffffffffffffffffffffffffffffffffff1681526020018381526020016000815260200160001515815250600a60008381526020019081526020016000206000820151816000015560208201518160010160006101000a81548173ffffffffffffffffffffffffffffffffffffffff021916908373ffffffffffffffffffffffffffffffffffffffff1602179055506040820151816002015560608201518160030160006101000a81548173ffffffffffffffffffffffffffffffffffffffff021916908373ffffffffffffffffffffffffffffffffffffffff16021790555060808201518160040160006101000a81548173ffffffffffffffffffffffffffffffffffffffff021916908373ffffffffffffffffffffffffffffffffffffffff16021790555060a0820151816005015560c0820151816006015560e08201518160070160006101000a81548160ff021916908315150217905550905050600760003373ffffffffffffffffffffffffffffffffffffffff1673ffffffffffffffffffffffffffffffffffffffff168152602001908152602001600020600081548092919061050b906114ae565b91905055508373ffffffffffffffffffffffffffffffffffffffff166323b872dd3330866040518463ffffffff1660e01b815260040161054d939291906112d5565b600060405180830381600087803b15801561056757600080fd5b505af115801561057b573d6000803e3d6000fd5b50505050828473ffffffffffffffffffffffffffffffffffffffff16827fd0bb1eaea8ab6cd0c288f209757734c5e280d8f4e05f93b1db82da8db7278758336000876000806040516105d195949392919061122f565b60405180910390a45060018081905550505050565b6105ee610ea5565b73ffffffffffffffffffffffffffffffffffffffff1661060c6106f4565b73ffffffffffffffffffffffffffffffffffffffff1614610662576040517f08c379a00000000000000000000000000000000000000000000000000000000081526004016106599061134c565b60405180910390fd5b61066c6000610ead565b565b610676610ea5565b73ffffffffffffffffffffffffffffffffffffffff166106946106f4565b73ffffffffffffffffffffffffffffffffffffffff16146106ea576040517f08c379a00000000000000000000000000000000000000000000000000000000081526004016106e19061134c565b60405180910390fd5b8060068190555050565b60008060009054906101000a900473ffffffffffffffffffffffffffffffffffffffff16905090565b60026001541415610763576040517f08c379a000000000000000000000000000000000000000000000000000000000815260040161075a9061138c565b60405180910390fd5b6002600181905550600081116107ae576040517f08c379a00000000000000000000000000000000000000000000000000000000081526004016107a5906113ac565b60405180910390fd5b60065434146107f2576040517f08c379a00000000000000000000000000000000000000000000000000000000081526004016107e99061136c565b60405180910390fd5b6000600a6000848152602001908152602001600020905060008160070160006101000a81548160ff021916908315150217905550818160050181905550338160030160006101000a81548173ffffffffffffffffffffffffffffffffffffffff021916908373ffffffffffffffffffffffffffffffffffffffff16021790555060008160040160006101000a81548173ffffffffffffffffffffffffffffffffffffffff021916908373ffffffffffffffffffffffffffffffffffffffff160217905550600760003373ffffffffffffffffffffffffffffffffffffffff1673ffffffffffffffffffffffffffffffffffffffff1681526020019081526020016000206000815480929190610906906114ae565b9190505550600860003373ffffffffffffffffffffffffffffffffffffffff1673ffffffffffffffffffffffffffffffffffffffff168152602001908152602001600020600081548092919061095b90611484565b919050555061096a6003610f71565b8373ffffffffffffffffffffffffffffffffffffffff166323b872dd333084600201546040518463ffffffff1660e01b81526004016109ab939291906112d5565b600060405180830381600087803b1580156109c557600080fd5b505af11580156109d9573d6000803e3d6000fd5b5050505080600201548473ffffffffffffffffffffffffffffffffffffffff16847fd0bb1eaea8ab6cd0c288f209757734c5e280d8f4e05f93b1db82da8db72787583360008787600501546000604051610a37959493929190611282565b60405180910390a45060018081905550505050565b6000600a60008381526020019081526020016000206005015490506000600a6000848152602001908152602001600020600201549050348214610ac4576040517f08c379a0000000000000000000000000000000000000000000000000000000008152600401610abb906113cc565b60405180910390fd5b600a600084815260200190815260200160002060030160009054906101000a900473ffffffffffffffffffffffffffffffffffffffff1673ffffffffffffffffffffffffffffffffffffffff166108fc839081150290604051600060405180830381858888f19350505050158015610b40573d6000803e3d6000fd5b508373ffffffffffffffffffffffffffffffffffffffff166323b872dd3033846040518463ffffffff1660e01b8152600401610b7e939291906112d5565b600060405180830381600087803b158015610b9857600080fd5b505af1158015610bac573d6000803e3d6000fd5b5050505033600a600085815260200190815260200160002060040160006101000a81548173ffffffffffffffffffffffffffffffffffffffff021916908373ffffffffffffffffffffffffffffffffffffffff1602179055506001600a600085815260200190815260200160002060070160006101000a81548160ff021916908315150217905550610c3e6003610e8f565b600560009054906101000a900473ffffffffffffffffffffffffffffffffffffffff1673ffffffffffffffffffffffffffffffffffffffff166108fc6006549081150290604051600060405180830381858888f19350505050158015610ca8573d6000803e3d6000fd5b50600860003373ffffffffffffffffffffffffffffffffffffffff1673ffffffffffffffffffffffffffffffffffffffff1681526020019081526020016000206000815480929190610cf9906114ae565b919050555060096000848152602001908152602001600020339080600181540180825580915050600190039060005260206000200160009091909190916101000a81548173ffffffffffffffffffffffffffffffffffffffff021916908373ffffffffffffffffffffffffffffffffffffffff16021790555050505050565b6000610d846002610e81565b905090565b610d91610ea5565b73ffffffffffffffffffffffffffffffffffffffff16610daf6106f4565b73ffffffffffffffffffffffffffffffffffffffff1614610e05576040517f08c379a0000000000000000000000000000000000000000000000000000000008152600401610dfc9061134c565b60405180910390fd5b600073ffffffffffffffffffffffffffffffffffffffff168173ffffffffffffffffffffffffffffffffffffffff161415610e75576040517f08c379a0000000000000000000000000000000000000000000000000000000008152600401610e6c9061132c565b60405180910390fd5b610e7e81610ead565b50565b600081600001549050919050565b6001816000016000828254019250508190555050565b600033905090565b60008060009054906101000a900473ffffffffffffffffffffffffffffffffffffffff169050816000806101000a81548173ffffffffffffffffffffffffffffffffffffffff021916908373ffffffffffffffffffffffffffffffffffffffff1602179055508173ffffffffffffffffffffffffffffffffffffffff168173ffffffffffffffffffffffffffffffffffffffff167f8be0079c531659141344cd1fd0a4f28419497f9722a3daafe3b4186f6b6457e060405160405180910390a35050565b60008160000154905060008111610fbd576040517f08c379a0000000000000000000000000000000000000000000000000000000008152600401610fb49061130c565b60405180910390fd5b6001810382600001819055505050565b600081359050610fdc81611691565b92915050565b600081359050610ff1816116a8565b92915050565b60006020828403121561100957600080fd5b600061101784828501610fcd565b91505092915050565b6000806040838503121561103357600080fd5b600061104185828601610fcd565b925050602061105285828601610fe2565b9150509250929050565b60008060006060848603121561107157600080fd5b600061107f86828701610fcd565b935050602061109086828701610fe2565b92505060406110a186828701610fe2565b9150509250925092565b6000602082840312156110bd57600080fd5b60006110cb84828501610fe2565b91505092915050565b6110dd8161142a565b82525050565b6110ec81611418565b82525050565b6110fb8161143c565b82525050565b61110a81611472565b82525050565b600061111d601b83611407565b915061112882611526565b602082019050919050565b6000611140602683611407565b915061114b8261154f565b604082019050919050565b6000611163602083611407565b915061116e8261159e565b602082019050919050565b6000611186602483611407565b9150611191826115c7565b604082019050919050565b60006111a9601f83611407565b91506111b482611616565b602082019050919050565b60006111cc601c83611407565b91506111d78261163f565b602082019050919050565b60006111ef602083611407565b91506111fa82611668565b602082019050919050565b61120e81611468565b82525050565b600060208201905061122960008301846110e3565b92915050565b600060a08201905061124460008301886110d4565b61125160208301876110d4565b61125e6040830186611205565b61126b6060830185611101565b61127860808301846110f2565b9695505050505050565b600060a08201905061129760008301886110d4565b6112a460208301876110d4565b6112b16040830186611205565b6112be6060830185611205565b6112cb60808301846110f2565b9695505050505050565b60006060820190506112ea60008301866110e3565b6112f760208301856110e3565b6113046040830184611205565b949350505050565b6000602082019050818103600083015261132581611110565b9050919050565b6000602082019050818103600083015261134581611133565b9050919050565b6000602082019050818103600083015261136581611156565b9050919050565b6000602082019050818103600083015261138581611179565b9050919050565b600060208201905081810360008301526113a58161119c565b9050919050565b600060208201905081810360008301526113c5816111bf565b9050919050565b600060208201905081810360008301526113e5816111e2565b9050919050565b60006020820190506114016000830184611205565b92915050565b600082825260208201905092915050565b600061142382611448565b9050919050565b600061143582611448565b9050919050565b60008115159050919050565b600073ffffffffffffffffffffffffffffffffffffffff82169050919050565b6000819050919050565b600061147d82611468565b9050919050565b600061148f82611468565b915060008214156114a3576114a26114f7565b5b600182039050919050565b60006114b982611468565b91507fffffffffffffffffffffffffffffffffffffffffffffffffffffffffffffffff8214156114ec576114eb6114f7565b5b600182019050919050565b7f4e487b7100000000000000000000000000000000000000000000000000000000600052601160045260246000fd5b7f436f756e7465723a2064656372656d656e74206f766572666c6f770000000000600082015250565b7f4f776e61626c653a206e6577206f776e657220697320746865207a65726f206160008201527f6464726573730000000000000000000000000000000000000000000000000000602082015250565b7f4f776e61626c653a2063616c6c6572206973206e6f7420746865206f776e6572600082015250565b7f5072696365206d75737420626520657175616c20746f206c697374696e67207060008201527f7269636500000000000000000000000000000000000000000000000000000000602082015250565b7f5265656e7472616e637947756172643a207265656e7472616e742063616c6c00600082015250565b7f5072696365206d757374206265206174206c6561737420312077656900000000600082015250565b7f506c65617365207375626d697420746865207265717569726564207072696365600082015250565b61169a81611418565b81146116a557600080fd5b50565b6116b181611468565b81146116bc57600080fd5b5056fea26469706673582212203c5cac0bff5736bcce0772937fc08337354f5150f6dfc4b8c0200ebf00aeff0a64736f6c63430008040033",
  "linkReferences": {},
  "deployedLinkReferences": {}
}