{
  "_format": "hh-sol-artifact-1",
  "contractName": "BendingNFTMarket",
  "sourceName": "contracts/BendingNFTMarket.sol",
  "abi": [
    {
      "inputs": [],
      "stateMutability": "nonpayable",
      "type": "constructor"
    },
    {
      "anonymous": false,
      "inputs": [
        {
          "indexed": true,
          "internalType": "uint256",
          "name": "itemId",
          "type": "uint256"
        },
        {
          "indexed": true,
          "internalType": "address",
          "name": "ntfContract",
          "type": "address"
        },
        {
          "indexed": true,
          "internalType": "uint256",
          "name": "tokenId",
          "type": "uint256"
        },
        {
          "indexed": false,
          "internalType": "address payable",
          "name": "seller",
          "type": "address"
        },
        {
          "indexed": false,
          "internalType": "address payable",
          "name": "owner",
          "type": "address"
        },
        {
          "indexed": false,
          "internalType": "uint256",
          "name": "price",
          "type": "uint256"
        },
        {
          "indexed": false,
          "internalType": "uint256",
          "name": "lastPrice",
          "type": "uint256"
        },
        {
          "indexed": false,
          "internalType": "bool",
          "name": "sold",
          "type": "bool"
        }
      ],
      "name": "MarketItemCreated",
      "type": "event"
    },
    {
      "anonymous": false,
      "inputs": [
        {
          "indexed": true,
          "internalType": "address",
          "name": "previousOwner",
          "type": "address"
        },
        {
          "indexed": true,
          "internalType": "address",
          "name": "newOwner",
          "type": "address"
        }
      ],
      "name": "OwnershipTransferred",
      "type": "event"
    },
    {
      "inputs": [
        {
          "internalType": "address",
          "name": "_nftContract",
          "type": "address"
        },
        {
          "internalType": "uint256",
          "name": "_tokenId",
          "type": "uint256"
        },
        {
          "internalType": "uint256",
          "name": "_price",
          "type": "uint256"
        }
      ],
      "name": "createMarketItem",
      "outputs": [],
      "stateMutability": "payable",
      "type": "function"
    },
    {
      "inputs": [
        {
          "internalType": "address",
          "name": "_nftContract",
          "type": "address"
        },
        {
          "internalType": "uint256",
          "name": "_itemId",
          "type": "uint256"
        }
      ],
      "name": "createMarketSale",
      "outputs": [],
      "stateMutability": "payable",
      "type": "function"
    },
    {
      "inputs": [],
      "name": "getListingPrice",
      "outputs": [
        {
          "internalType": "uint256",
          "name": "",
          "type": "uint256"
        }
      ],
      "stateMutability": "view",
      "type": "function"
    },
    {
      "inputs": [],
      "name": "getMarketItems",
      "outputs": [
        {
          "components": [
            {
              "internalType": "uint256",
              "name": "itemId",
              "type": "uint256"
            },
            {
              "internalType": "address",
              "name": "ntfContract",
              "type": "address"
            },
            {
              "internalType": "uint256",
              "name": "tokenId",
              "type": "uint256"
            },
            {
              "internalType": "address payable",
              "name": "seller",
              "type": "address"
            },
            {
              "internalType": "address payable",
              "name": "owner",
              "type": "address"
            },
            {
              "internalType": "uint256",
              "name": "price",
              "type": "uint256"
            },
            {
              "internalType": "uint256",
              "name": "lastPrice",
              "type": "uint256"
            },
            {
              "internalType": "bool",
              "name": "sold",
              "type": "bool"
            }
          ],
          "internalType": "struct BendingNFTMarket.MarketItem[]",
          "name": "",
          "type": "tuple[]"
        }
      ],
      "stateMutability": "view",
      "type": "function"
    },
    {
      "inputs": [],
      "name": "getMyCreatedNFTs",
      "outputs": [
        {
          "components": [
            {
              "internalType": "uint256",
              "name": "itemId",
              "type": "uint256"
            },
            {
              "internalType": "address",
              "name": "ntfContract",
              "type": "address"
            },
            {
              "internalType": "uint256",
              "name": "tokenId",
              "type": "uint256"
            },
            {
              "internalType": "address payable",
              "name": "seller",
              "type": "address"
            },
            {
              "internalType": "address payable",
              "name": "owner",
              "type": "address"
            },
            {
              "internalType": "uint256",
              "name": "price",
              "type": "uint256"
            },
            {
              "internalType": "uint256",
              "name": "lastPrice",
              "type": "uint256"
            },
            {
              "internalType": "bool",
              "name": "sold",
              "type": "bool"
            }
          ],
          "internalType": "struct BendingNFTMarket.MarketItem[]",
          "name": "",
          "type": "tuple[]"
        }
      ],
      "stateMutability": "view",
      "type": "function"
    },
    {
      "inputs": [],
      "name": "getMyNFTs",
      "outputs": [
        {
          "components": [
            {
              "internalType": "uint256",
              "name": "itemId",
              "type": "uint256"
            },
            {
              "internalType": "address",
              "name": "ntfContract",
              "type": "address"
            },
            {
              "internalType": "uint256",
              "name": "tokenId",
              "type": "uint256"
            },
            {
              "internalType": "address payable",
              "name": "seller",
              "type": "address"
            },
            {
              "internalType": "address payable",
              "name": "owner",
              "type": "address"
            },
            {
              "internalType": "uint256",
              "name": "price",
              "type": "uint256"
            },
            {
              "internalType": "uint256",
              "name": "lastPrice",
              "type": "uint256"
            },
            {
              "internalType": "bool",
              "name": "sold",
              "type": "bool"
            }
          ],
          "internalType": "struct BendingNFTMarket.MarketItem[]",
          "name": "",
          "type": "tuple[]"
        }
      ],
      "stateMutability": "view",
      "type": "function"
    },
    {
      "inputs": [],
      "name": "owner",
      "outputs": [
        {
          "internalType": "address",
          "name": "",
          "type": "address"
        }
      ],
      "stateMutability": "view",
      "type": "function"
    },
    {
      "inputs": [],
      "name": "renounceOwnership",
      "outputs": [],
      "stateMutability": "nonpayable",
      "type": "function"
    },
    {
      "inputs": [
        {
          "internalType": "address",
          "name": "_nftContract",
          "type": "address"
        },
        {
          "internalType": "uint256",
          "name": "_itemId",
          "type": "uint256"
        },
        {
          "internalType": "uint256",
          "name": "_price",
          "type": "uint256"
        }
      ],
      "name": "resellMarketItem",
      "outputs": [],
      "stateMutability": "payable",
      "type": "function"
    },
    {
      "inputs": [
        {
          "internalType": "uint256",
          "name": "_listingPrice",
          "type": "uint256"
        }
      ],
      "name": "setListingPrice",
      "outputs": [],
      "stateMutability": "nonpayable",
      "type": "function"
    },
    {
      "inputs": [
        {
          "internalType": "address",
          "name": "newOwner",
          "type": "address"
        }
      ],
      "name": "transferOwnership",
      "outputs": [],
      "stateMutability": "nonpayable",
      "type": "function"
    }
  ],
  "bytecode": "0x60806040526658d15e1762800060065534801561001b57600080fd5b5061003861002d61008560201b60201c565b61008d60201b60201c565b6001808190555033600560006101000a81548173ffffffffffffffffffffffffffffffffffffffff021916908373ffffffffffffffffffffffffffffffffffffffff160217905550610151565b600033905090565b60008060009054906101000a900473ffffffffffffffffffffffffffffffffffffffff169050816000806101000a81548173ffffffffffffffffffffffffffffffffffffffff021916908373ffffffffffffffffffffffffffffffffffffffff1602179055508173ffffffffffffffffffffffffffffffffffffffff168173ffffffffffffffffffffffffffffffffffffffff167f8be0079c531659141344cd1fd0a4f28419497f9722a3daafe3b4186f6b6457e060405160405180910390a35050565b6122a080620001616000396000f3fe60806040526004361061009c5760003560e01c8063715018a611610064578063715018a6146101695780637c726b69146101805780638da5cb5b146101a95780638eb6ee4a146101d4578063c23b139e146101f0578063f2fde38b1461020c5761009c565b806312e85585146100a15780631a9d2686146100cc57806329aa3a42146100f757806358eb2df514610122578063629cb2e41461013e575b600080fd5b3480156100ad57600080fd5b506100b6610235565b6040516100c39190611f2a565b60405180910390f35b3480156100d857600080fd5b506100e161023f565b6040516100ee9190611e28565b60405180910390f35b34801561010357600080fd5b5061010c610559565b6040516101199190611e28565b60405180910390f35b61013c60048036038101906101379190611a23565b61084f565b005b34801561014a57600080fd5b50610153610c1b565b6040516101609190611e28565b60405180910390f35b34801561017557600080fd5b5061017e610f35565b005b34801561018c57600080fd5b506101a760048036038101906101a29190611a72565b610fbd565b005b3480156101b557600080fd5b506101be611043565b6040516101cb9190611d30565b60405180910390f35b6101ee60048036038101906101e99190611a23565b61106c565b005b61020a600480360381019061020591906119e7565b61139b565b005b34801561021857600080fd5b50610233600480360381019061022e91906119be565b6116c7565b005b6000600654905090565b6060600061024d60026117bf565b9050600080600760003373ffffffffffffffffffffffffffffffffffffffff1673ffffffffffffffffffffffffffffffffffffffff1681526020019081526020016000205467ffffffffffffffff8111156102d1577f4e487b7100000000000000000000000000000000000000000000000000000000600052604160045260246000fd5b60405190808252806020026020018201604052801561030a57816020015b6102f761190b565b8152602001906001900390816102ef5790505b5090506000600190505b83811161054f573373ffffffffffffffffffffffffffffffffffffffff16600a600083815260200190815260200160002060030160009054906101000a900473ffffffffffffffffffffffffffffffffffffffff1673ffffffffffffffffffffffffffffffffffffffff16141561053c57600a600082815260200190815260200160002060405180610100016040529081600082015481526020016001820160009054906101000a900473ffffffffffffffffffffffffffffffffffffffff1673ffffffffffffffffffffffffffffffffffffffff1673ffffffffffffffffffffffffffffffffffffffff168152602001600282015481526020016003820160009054906101000a900473ffffffffffffffffffffffffffffffffffffffff1673ffffffffffffffffffffffffffffffffffffffff1673ffffffffffffffffffffffffffffffffffffffff1681526020016004820160009054906101000a900473ffffffffffffffffffffffffffffffffffffffff1673ffffffffffffffffffffffffffffffffffffffff1673ffffffffffffffffffffffffffffffffffffffff16815260200160058201548152602001600682015481526020016007820160009054906101000a900460ff161515151581525050828481518110610522577f4e487b7100000000000000000000000000000000000000000000000000000000600052603260045260246000fd5b6020026020010181905250828061053890612059565b9350505b808061054790612059565b915050610314565b5080935050505090565b6060600061056760026117bf565b9050600061057560036117bf565b826105809190611f8f565b90506000808267ffffffffffffffff8111156105c5577f4e487b7100000000000000000000000000000000000000000000000000000000600052604160045260246000fd5b6040519080825280602002602001820160405280156105fe57816020015b6105eb61190b565b8152602001906001900390816105e35790505b5090506000600190505b84811161084457600073ffffffffffffffffffffffffffffffffffffffff16600a600083815260200190815260200160002060040160009054906101000a900473ffffffffffffffffffffffffffffffffffffffff1673ffffffffffffffffffffffffffffffffffffffff16141561083157600a600082815260200190815260200160002060405180610100016040529081600082015481526020016001820160009054906101000a900473ffffffffffffffffffffffffffffffffffffffff1673ffffffffffffffffffffffffffffffffffffffff1673ffffffffffffffffffffffffffffffffffffffff168152602001600282015481526020016003820160009054906101000a900473ffffffffffffffffffffffffffffffffffffffff1673ffffffffffffffffffffffffffffffffffffffff1673ffffffffffffffffffffffffffffffffffffffff1681526020016004820160009054906101000a900473ffffffffffffffffffffffffffffffffffffffff1673ffffffffffffffffffffffffffffffffffffffff1673ffffffffffffffffffffffffffffffffffffffff16815260200160058201548152602001600682015481526020016007820160009054906101000a900460ff161515151581525050828481518110610817577f4e487b7100000000000000000000000000000000000000000000000000000000600052603260045260246000fd5b6020026020010181905250828061082d90612059565b9350505b808061083c90612059565b915050610608565b508094505050505090565b60026001541415610895576040517f08c379a000000000000000000000000000000000000000000000000000000000815260040161088c90611eca565b60405180910390fd5b6002600181905550600081116108e0576040517f08c379a00000000000000000000000000000000000000000000000000000000081526004016108d790611eea565b60405180910390fd5b6006543414610924576040517f08c379a000000000000000000000000000000000000000000000000000000000815260040161091b90611eaa565b60405180910390fd5b61092e60026117cd565b600061093a60026117bf565b90506040518061010001604052808281526020018573ffffffffffffffffffffffffffffffffffffffff1681526020018481526020013373ffffffffffffffffffffffffffffffffffffffff168152602001600073ffffffffffffffffffffffffffffffffffffffff1681526020018381526020016000815260200160001515815250600a60008381526020019081526020016000206000820151816000015560208201518160010160006101000a81548173ffffffffffffffffffffffffffffffffffffffff021916908373ffffffffffffffffffffffffffffffffffffffff1602179055506040820151816002015560608201518160030160006101000a81548173ffffffffffffffffffffffffffffffffffffffff021916908373ffffffffffffffffffffffffffffffffffffffff16021790555060808201518160040160006101000a81548173ffffffffffffffffffffffffffffffffffffffff021916908373ffffffffffffffffffffffffffffffffffffffff16021790555060a0820151816005015560c0820151816006015560e08201518160070160006101000a81548160ff021916908315150217905550905050600760003373ffffffffffffffffffffffffffffffffffffffff1673ffffffffffffffffffffffffffffffffffffffff1681526020019081526020016000206000815480929190610b4090612059565b91905055508373ffffffffffffffffffffffffffffffffffffffff166323b872dd3330866040518463ffffffff1660e01b8152600401610b8293929190611df1565b600060405180830381600087803b158015610b9c57600080fd5b505af1158015610bb0573d6000803e3d6000fd5b50505050828473ffffffffffffffffffffffffffffffffffffffff16827fd0bb1eaea8ab6cd0c288f209757734c5e280d8f4e05f93b1db82da8db727875833600087600080604051610c06959493929190611d4b565b60405180910390a45060018081905550505050565b60606000610c2960026117bf565b9050600080600860003373ffffffffffffffffffffffffffffffffffffffff1673ffffffffffffffffffffffffffffffffffffffff1681526020019081526020016000205467ffffffffffffffff811115610cad577f4e487b7100000000000000000000000000000000000000000000000000000000600052604160045260246000fd5b604051908082528060200260200182016040528015610ce657816020015b610cd361190b565b815260200190600190039081610ccb5790505b5090506000600190505b838111610f2b573373ffffffffffffffffffffffffffffffffffffffff16600a600083815260200190815260200160002060040160009054906101000a900473ffffffffffffffffffffffffffffffffffffffff1673ffffffffffffffffffffffffffffffffffffffff161415610f1857600a600082815260200190815260200160002060405180610100016040529081600082015481526020016001820160009054906101000a900473ffffffffffffffffffffffffffffffffffffffff1673ffffffffffffffffffffffffffffffffffffffff1673ffffffffffffffffffffffffffffffffffffffff168152602001600282015481526020016003820160009054906101000a900473ffffffffffffffffffffffffffffffffffffffff1673ffffffffffffffffffffffffffffffffffffffff1673ffffffffffffffffffffffffffffffffffffffff1681526020016004820160009054906101000a900473ffffffffffffffffffffffffffffffffffffffff1673ffffffffffffffffffffffffffffffffffffffff1673ffffffffffffffffffffffffffffffffffffffff16815260200160058201548152602001600682015481526020016007820160009054906101000a900460ff161515151581525050828481518110610efe577f4e487b7100000000000000000000000000000000000000000000000000000000600052603260045260246000fd5b60200260200101819052508280610f1490612059565b9350505b8080610f2390612059565b915050610cf0565b5080935050505090565b610f3d6117e3565b73ffffffffffffffffffffffffffffffffffffffff16610f5b611043565b73ffffffffffffffffffffffffffffffffffffffff1614610fb1576040517f08c379a0000000000000000000000000000000000000000000000000000000008152600401610fa890611e8a565b60405180910390fd5b610fbb60006117eb565b565b610fc56117e3565b73ffffffffffffffffffffffffffffffffffffffff16610fe3611043565b73ffffffffffffffffffffffffffffffffffffffff1614611039576040517f08c379a000000000000000000000000000000000000000000000000000000000815260040161103090611e8a565b60405180910390fd5b8060068190555050565b60008060009054906101000a900473ffffffffffffffffffffffffffffffffffffffff16905090565b600260015414156110b2576040517f08c379a00000000000000000000000000000000000000000000000000000000081526004016110a990611eca565b60405180910390fd5b6002600181905550600081116110fd576040517f08c379a00000000000000000000000000000000000000000000000000000000081526004016110f490611eea565b60405180910390fd5b6006543414611141576040517f08c379a000000000000000000000000000000000000000000000000000000000815260040161113890611eaa565b60405180910390fd5b6000600a6000848152602001908152602001600020905060008160070160006101000a81548160ff021916908315150217905550818160050181905550338160030160006101000a81548173ffffffffffffffffffffffffffffffffffffffff021916908373ffffffffffffffffffffffffffffffffffffffff16021790555060008160040160006101000a81548173ffffffffffffffffffffffffffffffffffffffff021916908373ffffffffffffffffffffffffffffffffffffffff160217905550600760003373ffffffffffffffffffffffffffffffffffffffff1673ffffffffffffffffffffffffffffffffffffffff168152602001908152602001600020600081548092919061125590612059565b9190505550600860003373ffffffffffffffffffffffffffffffffffffffff1673ffffffffffffffffffffffffffffffffffffffff16815260200190815260200160002060008154809291906112aa9061202f565b91905055506112b960036118af565b8373ffffffffffffffffffffffffffffffffffffffff166323b872dd333084600201546040518463ffffffff1660e01b81526004016112fa93929190611df1565b600060405180830381600087803b15801561131457600080fd5b505af1158015611328573d6000803e3d6000fd5b5050505080600201548473ffffffffffffffffffffffffffffffffffffffff16847fd0bb1eaea8ab6cd0c288f209757734c5e280d8f4e05f93b1db82da8db72787583360008787600501546000604051611386959493929190611d9e565b60405180910390a45060018081905550505050565b6000600a60008381526020019081526020016000206005015490506000600a6000848152602001908152602001600020600201549050348214611413576040517f08c379a000000000000000000000000000000000000000000000000000000000815260040161140a90611f0a565b60405180910390fd5b600a600084815260200190815260200160002060030160009054906101000a900473ffffffffffffffffffffffffffffffffffffffff1673ffffffffffffffffffffffffffffffffffffffff166108fc839081150290604051600060405180830381858888f1935050505015801561148f573d6000803e3d6000fd5b508373ffffffffffffffffffffffffffffffffffffffff166323b872dd3033846040518463ffffffff1660e01b81526004016114cd93929190611df1565b600060405180830381600087803b1580156114e757600080fd5b505af11580156114fb573d6000803e3d6000fd5b5050505033600a600085815260200190815260200160002060040160006101000a81548173ffffffffffffffffffffffffffffffffffffffff021916908373ffffffffffffffffffffffffffffffffffffffff1602179055506001600a600085815260200190815260200160002060070160006101000a81548160ff02191690831515021790555061158d60036117cd565b600560009054906101000a900473ffffffffffffffffffffffffffffffffffffffff1673ffffffffffffffffffffffffffffffffffffffff166108fc6006549081150290604051600060405180830381858888f193505050501580156115f7573d6000803e3d6000fd5b50600860003373ffffffffffffffffffffffffffffffffffffffff1673ffffffffffffffffffffffffffffffffffffffff168152602001908152602001600020600081548092919061164890612059565b919050555060096000848152602001908152602001600020339080600181540180825580915050600190039060005260206000200160009091909190916101000a81548173ffffffffffffffffffffffffffffffffffffffff021916908373ffffffffffffffffffffffffffffffffffffffff16021790555050505050565b6116cf6117e3565b73ffffffffffffffffffffffffffffffffffffffff166116ed611043565b73ffffffffffffffffffffffffffffffffffffffff1614611743576040517f08c379a000000000000000000000000000000000000000000000000000000000815260040161173a90611e8a565b60405180910390fd5b600073ffffffffffffffffffffffffffffffffffffffff168173ffffffffffffffffffffffffffffffffffffffff1614156117b3576040517f08c379a00000000000000000000000000000000000000000000000000000000081526004016117aa90611e6a565b60405180910390fd5b6117bc816117eb565b50565b600081600001549050919050565b6001816000016000828254019250508190555050565b600033905090565b60008060009054906101000a900473ffffffffffffffffffffffffffffffffffffffff169050816000806101000a81548173ffffffffffffffffffffffffffffffffffffffff021916908373ffffffffffffffffffffffffffffffffffffffff1602179055508173ffffffffffffffffffffffffffffffffffffffff168173ffffffffffffffffffffffffffffffffffffffff167f8be0079c531659141344cd1fd0a4f28419497f9722a3daafe3b4186f6b6457e060405160405180910390a35050565b600081600001549050600081116118fb576040517f08c379a00000000000000000000000000000000000000000000000000000000081526004016118f290611e4a565b60405180910390fd5b6001810382600001819055505050565b60405180610100016040528060008152602001600073ffffffffffffffffffffffffffffffffffffffff16815260200160008152602001600073ffffffffffffffffffffffffffffffffffffffff168152602001600073ffffffffffffffffffffffffffffffffffffffff16815260200160008152602001600081526020016000151581525090565b6000813590506119a38161223c565b92915050565b6000813590506119b881612253565b92915050565b6000602082840312156119d057600080fd5b60006119de84828501611994565b91505092915050565b600080604083850312156119fa57600080fd5b6000611a0885828601611994565b9250506020611a19858286016119a9565b9150509250929050565b600080600060608486031215611a3857600080fd5b6000611a4686828701611994565b9350506020611a57868287016119a9565b9250506040611a68868287016119a9565b9150509250925092565b600060208284031215611a8457600080fd5b6000611a92848285016119a9565b91505092915050565b6000611aa78383611c70565b6101008301905092915050565b611abd81611fd5565b82525050565b611acc81611fd5565b82525050565b611adb81611fc3565b82525050565b611aea81611fc3565b82525050565b6000611afb82611f55565b611b058185611f6d565b9350611b1083611f45565b8060005b83811015611b41578151611b288882611a9b565b9750611b3383611f60565b925050600181019050611b14565b5085935050505092915050565b611b5781611fe7565b82525050565b611b6681611fe7565b82525050565b611b758161201d565b82525050565b6000611b88601b83611f7e565b9150611b93826120d1565b602082019050919050565b6000611bab602683611f7e565b9150611bb6826120fa565b604082019050919050565b6000611bce602083611f7e565b9150611bd982612149565b602082019050919050565b6000611bf1602483611f7e565b9150611bfc82612172565b604082019050919050565b6000611c14601f83611f7e565b9150611c1f826121c1565b602082019050919050565b6000611c37601c83611f7e565b9150611c42826121ea565b602082019050919050565b6000611c5a602083611f7e565b9150611c6582612213565b602082019050919050565b61010082016000820151611c876000850182611d12565b506020820151611c9a6020850182611ad2565b506040820151611cad6040850182611d12565b506060820151611cc06060850182611ab4565b506080820151611cd36080850182611ab4565b5060a0820151611ce660a0850182611d12565b5060c0820151611cf960c0850182611d12565b5060e0820151611d0c60e0850182611b4e565b50505050565b611d1b81612013565b82525050565b611d2a81612013565b82525050565b6000602082019050611d456000830184611ae1565b92915050565b600060a082019050611d606000830188611ac3565b611d6d6020830187611ac3565b611d7a6040830186611d21565b611d876060830185611b6c565b611d946080830184611b5d565b9695505050505050565b600060a082019050611db36000830188611ac3565b611dc06020830187611ac3565b611dcd6040830186611d21565b611dda6060830185611d21565b611de76080830184611b5d565b9695505050505050565b6000606082019050611e066000830186611ae1565b611e136020830185611ae1565b611e206040830184611d21565b949350505050565b60006020820190508181036000830152611e428184611af0565b905092915050565b60006020820190508181036000830152611e6381611b7b565b9050919050565b60006020820190508181036000830152611e8381611b9e565b9050919050565b60006020820190508181036000830152611ea381611bc1565b9050919050565b60006020820190508181036000830152611ec381611be4565b9050919050565b60006020820190508181036000830152611ee381611c07565b9050919050565b60006020820190508181036000830152611f0381611c2a565b9050919050565b60006020820190508181036000830152611f2381611c4d565b9050919050565b6000602082019050611f3f6000830184611d21565b92915050565b6000819050602082019050919050565b600081519050919050565b6000602082019050919050565b600082825260208201905092915050565b600082825260208201905092915050565b6000611f9a82612013565b9150611fa583612013565b925082821015611fb857611fb76120a2565b5b828203905092915050565b6000611fce82611ff3565b9050919050565b6000611fe082611ff3565b9050919050565b60008115159050919050565b600073ffffffffffffffffffffffffffffffffffffffff82169050919050565b6000819050919050565b600061202882612013565b9050919050565b600061203a82612013565b9150600082141561204e5761204d6120a2565b5b600182039050919050565b600061206482612013565b91507fffffffffffffffffffffffffffffffffffffffffffffffffffffffffffffffff821415612097576120966120a2565b5b600182019050919050565b7f4e487b7100000000000000000000000000000000000000000000000000000000600052601160045260246000fd5b7f436f756e7465723a2064656372656d656e74206f766572666c6f770000000000600082015250565b7f4f776e61626c653a206e6577206f776e657220697320746865207a65726f206160008201527f6464726573730000000000000000000000000000000000000000000000000000602082015250565b7f4f776e61626c653a2063616c6c6572206973206e6f7420746865206f776e6572600082015250565b7f5072696365206d75737420626520657175616c20746f206c697374696e67207060008201527f7269636500000000000000000000000000000000000000000000000000000000602082015250565b7f5265656e7472616e637947756172643a207265656e7472616e742063616c6c00600082015250565b7f5072696365206d757374206265206174206c6561737420312077656900000000600082015250565b7f506c65617365207375626d697420746865207265717569726564207072696365600082015250565b61224581611fc3565b811461225057600080fd5b50565b61225c81612013565b811461226757600080fd5b5056fea2646970667358221220aa5518152e6426d4f3d78d6f3eca16e881bf0dba5f7577c9e65f30a832c3ef7564736f6c63430008040033",
  "linkReferences": {},
  "deployedLinkReferences": {}
}