{
  "_format": "hh-sol-artifact-1",
  "contractName": "Tournament",
  "sourceName": "src/contracts/Game/Tournament.sol",
  "abi": [
    {
      "inputs": [],
      "stateMutability": "nonpayable",
      "type": "constructor"
    },
    {
      "anonymous": false,
      "inputs": [
        {
          "indexed": true,
          "internalType": "address",
          "name": "previousOwner",
          "type": "address"
        },
        {
          "indexed": true,
          "internalType": "address",
          "name": "newOwner",
          "type": "address"
        }
      ],
      "name": "OwnershipTransferred",
      "type": "event"
    },
    {
      "inputs": [
        {
          "internalType": "uint256",
          "name": "_prixId",
          "type": "uint256"
        },
        {
          "internalType": "uint256",
          "name": "_startDate",
          "type": "uint256"
        },
        {
          "internalType": "uint256",
          "name": "_endDate",
          "type": "uint256"
        }
      ],
      "name": "addEvent",
      "outputs": [],
      "stateMutability": "nonpayable",
      "type": "function"
    },
    {
      "inputs": [
        {
          "internalType": "uint256",
          "name": "_playerId",
          "type": "uint256"
        },
        {
          "internalType": "uint256",
          "name": "_eventId",
          "type": "uint256"
        }
      ],
      "name": "addParticipant",
      "outputs": [],
      "stateMutability": "payable",
      "type": "function"
    },
    {
      "inputs": [
        {
          "internalType": "string",
          "name": "_name",
          "type": "string"
        },
        {
          "internalType": "string",
          "name": "_description",
          "type": "string"
        },
        {
          "internalType": "uint8",
          "name": "_seatsLimit",
          "type": "uint8"
        },
        {
          "internalType": "uint256",
          "name": "_seatsFee",
          "type": "uint256"
        }
      ],
      "name": "addPrix",
      "outputs": [],
      "stateMutability": "nonpayable",
      "type": "function"
    },
    {
      "inputs": [
        {
          "internalType": "uint256",
          "name": "_tournamentId",
          "type": "uint256"
        }
      ],
      "name": "getActivePrixEvent",
      "outputs": [
        {
          "components": [
            {
              "internalType": "uint256",
              "name": "tokenId",
              "type": "uint256"
            },
            {
              "internalType": "uint256",
              "name": "prixId",
              "type": "uint256"
            },
            {
              "internalType": "uint256",
              "name": "tournamentEdition",
              "type": "uint256"
            },
            {
              "internalType": "uint256",
              "name": "startDate",
              "type": "uint256"
            },
            {
              "internalType": "uint256",
              "name": "endDate",
              "type": "uint256"
            },
            {
              "internalType": "uint8",
              "name": "seatsTaken",
              "type": "uint8"
            },
            {
              "internalType": "string",
              "name": "champion",
              "type": "string"
            }
          ],
          "internalType": "struct Tournament.TournamentEvent",
          "name": "",
          "type": "tuple"
        }
      ],
      "stateMutability": "view",
      "type": "function"
    },
    {
      "inputs": [],
      "name": "getContractBalance",
      "outputs": [
        {
          "internalType": "uint256",
          "name": "",
          "type": "uint256"
        }
      ],
      "stateMutability": "view",
      "type": "function"
    },
    {
      "inputs": [
        {
          "internalType": "uint256",
          "name": "_eventId",
          "type": "uint256"
        }
      ],
      "name": "getEventFee",
      "outputs": [
        {
          "internalType": "uint256",
          "name": "",
          "type": "uint256"
        }
      ],
      "stateMutability": "view",
      "type": "function"
    },
    {
      "inputs": [
        {
          "internalType": "uint256",
          "name": "_eventId",
          "type": "uint256"
        }
      ],
      "name": "getEventParticipants",
      "outputs": [
        {
          "components": [
            {
              "internalType": "uint256",
              "name": "tokenId",
              "type": "uint256"
            },
            {
              "internalType": "uint256",
              "name": "points",
              "type": "uint256"
            },
            {
              "components": [
                {
                  "internalType": "uint8",
                  "name": "wins",
                  "type": "uint8"
                },
                {
                  "internalType": "uint8",
                  "name": "losses",
                  "type": "uint8"
                },
                {
                  "internalType": "uint8",
                  "name": "draws",
                  "type": "uint8"
                }
              ],
              "internalType": "struct Tournament.Record",
              "name": "record",
              "type": "tuple"
            },
            {
              "internalType": "address payable",
              "name": "owner",
              "type": "address"
            }
          ],
          "internalType": "struct Tournament.TournamentPlayer[]",
          "name": "",
          "type": "tuple[]"
        }
      ],
      "stateMutability": "view",
      "type": "function"
    },
    {
      "inputs": [
        {
          "internalType": "uint256",
          "name": "_eventId",
          "type": "uint256"
        }
      ],
      "name": "getEventWinner",
      "outputs": [
        {
          "internalType": "uint256",
          "name": "",
          "type": "uint256"
        }
      ],
      "stateMutability": "view",
      "type": "function"
    },
    {
      "inputs": [],
      "name": "getTournaments",
      "outputs": [
        {
          "components": [
            {
              "internalType": "uint256",
              "name": "tokenId",
              "type": "uint256"
            },
            {
              "internalType": "uint256",
              "name": "prize",
              "type": "uint256"
            },
            {
              "internalType": "uint256",
              "name": "seatFee",
              "type": "uint256"
            },
            {
              "internalType": "string",
              "name": "name",
              "type": "string"
            },
            {
              "internalType": "string",
              "name": "lastChampion",
              "type": "string"
            },
            {
              "internalType": "string",
              "name": "description",
              "type": "string"
            },
            {
              "internalType": "uint8",
              "name": "seatsLimit",
              "type": "uint8"
            },
            {
              "components": [
                {
                  "internalType": "uint256",
                  "name": "_value",
                  "type": "uint256"
                }
              ],
              "internalType": "struct Counters.Counter",
              "name": "editions",
              "type": "tuple"
            }
          ],
          "internalType": "struct Tournament.TournamentPrix[]",
          "name": "",
          "type": "tuple[]"
        }
      ],
      "stateMutability": "view",
      "type": "function"
    },
    {
      "inputs": [],
      "name": "owner",
      "outputs": [
        {
          "internalType": "address",
          "name": "",
          "type": "address"
        }
      ],
      "stateMutability": "view",
      "type": "function"
    },
    {
      "inputs": [
        {
          "internalType": "uint256",
          "name": "_eventId",
          "type": "uint256"
        }
      ],
      "name": "payout",
      "outputs": [],
      "stateMutability": "nonpayable",
      "type": "function"
    },
    {
      "inputs": [
        {
          "internalType": "uint256",
          "name": "_winner",
          "type": "uint256"
        },
        {
          "internalType": "uint256",
          "name": "_loser",
          "type": "uint256"
        }
      ],
      "name": "registerFight",
      "outputs": [],
      "stateMutability": "nonpayable",
      "type": "function"
    },
    {
      "inputs": [],
      "name": "renounceOwnership",
      "outputs": [],
      "stateMutability": "nonpayable",
      "type": "function"
    },
    {
      "inputs": [
        {
          "internalType": "address",
          "name": "newOwner",
          "type": "address"
        }
      ],
      "name": "transferOwnership",
      "outputs": [],
      "stateMutability": "nonpayable",
      "type": "function"
    }
  ],
  "bytecode": "0x60806040526014600c553480156200001657600080fd5b50620000376200002b6200007e60201b60201c565b6200008660201b60201c565b33600160006101000a81548173ffffffffffffffffffffffffffffffffffffffff021916908373ffffffffffffffffffffffffffffffffffffffff1602179055506200014a565b600033905090565b60008060009054906101000a900473ffffffffffffffffffffffffffffffffffffffff169050816000806101000a81548173ffffffffffffffffffffffffffffffffffffffff021916908373ffffffffffffffffffffffffffffffffffffffff1602179055508173ffffffffffffffffffffffffffffffffffffffff168173ffffffffffffffffffffffffffffffffffffffff167f8be0079c531659141344cd1fd0a4f28419497f9722a3daafe3b4186f6b6457e060405160405180910390a35050565b6128c3806200015a6000396000f3fe6080604052600436106100dd5760003560e01c8063b50e01821161007f578063f2fde38b11610059578063f2fde38b146102be578063f639bd6b146102e7578063f70778fa14610310578063f7f20cb31461032c576100dd565b8063b50e01821461021b578063e115234314610258578063e7ba945014610281576100dd565b80636f9fb98a116100bb5780636f9fb98a14610171578063715018a61461019c5780638da5cb5b146101b357806391a3b238146101de576100dd565b80630cfde6e0146100e25780630e4acd261461010b5780630f47793414610148575b600080fd5b3480156100ee57600080fd5b5061010960048036038101906101049190611d7b565b610357565b005b34801561011757600080fd5b50610132600480360381019061012d9190611e0e565b610518565b60405161013f919061237a565b60405180910390f35b34801561015457600080fd5b5061016f600480360381019061016a9190611e37565b61066e565b005b34801561017d57600080fd5b50610186610859565b604051610193919061239c565b60405180910390f35b3480156101a857600080fd5b506101b16108dd565b005b3480156101bf57600080fd5b506101c8610965565b6040516101d591906122bb565b60405180910390f35b3480156101ea57600080fd5b5061020560048036038101906102009190611e0e565b61098e565b604051610212919061239c565b60405180910390f35b34801561022757600080fd5b50610242600480360381019061023d9190611e0e565b610bc4565b60405161024f91906122d6565b60405180910390f35b34801561026457600080fd5b5061027f600480360381019061027a9190611e0e565b610e5a565b005b34801561028d57600080fd5b506102a860048036038101906102a39190611e0e565b6110d0565b6040516102b5919061239c565b60405180910390f35b3480156102ca57600080fd5b506102e560048036038101906102e09190611d52565b611170565b005b3480156102f357600080fd5b5061030e60048036038101906103099190611e73565b611268565b005b61032a60048036038101906103259190611e37565b611459565b005b34801561033857600080fd5b506103416117a6565b60405161034e91906122f8565b60405180910390f35b61035f611a15565b73ffffffffffffffffffffffffffffffffffffffff1661037d610965565b73ffffffffffffffffffffffffffffffffffffffff16146103d3576040517f08c379a00000000000000000000000000000000000000000000000000000000081526004016103ca9061235a565b60405180910390fd5b60006103e160036000611a1d565b90506103eb611b47565b6005604051806101000160405280848152602001600081526020018581526020018881526020016040518060200160405280600081525081526020018781526020018660ff168152602001838152509080600181540180825580915050600190039060005260206000209060080201600090919091909150600082015181600001556020820151816001015560408201518160020155606082015181600301908051906020019061049d929190611b5a565b5060808201518160040190805190602001906104ba929190611b5a565b5060a08201518160050190805190602001906104d7929190611b5a565b5060c08201518160060160006101000a81548160ff021916908360ff16021790555060e0820151816007016000820151816000015550505050505050505050565b610520611be0565b6006600a6000848152602001908152602001600020548154811061056d577f4e487b7100000000000000000000000000000000000000000000000000000000600052603260045260246000fd5b90600052602060002090600702016040518060e001604052908160008201548152602001600182015481526020016002820154815260200160038201548152602001600482015481526020016005820160009054906101000a900460ff1660ff1660ff1681526020016006820180546105e590612604565b80601f016020809104026020016040519081016040528092919081815260200182805461061190612604565b801561065e5780601f106106335761010080835404028352916020019161065e565b820191906000526020600020905b81548152906001019060200180831161064157829003601f168201915b5050505050815250509050919050565b610676611a15565b73ffffffffffffffffffffffffffffffffffffffff16610694610965565b73ffffffffffffffffffffffffffffffffffffffff16146106ea576040517f08c379a00000000000000000000000000000000000000000000000000000000081526004016106e19061235a565b60405180910390fd5b60078281548110610724577f4e487b7100000000000000000000000000000000000000000000000000000000600052603260045260246000fd5b9060005260206000209060040201600201600001600081819054906101000a900460ff1680929190610755906126b0565b91906101000a81548160ff021916908360ff160217905550506003600783815481106107aa577f4e487b7100000000000000000000000000000000000000000000000000000000600052603260045260246000fd5b906000526020600020906004020160010160008282546107ca91906124ac565b925050819055506007818154811061080b577f4e487b7100000000000000000000000000000000000000000000000000000000600052603260045260246000fd5b9060005260206000209060040201600201600001600181819054906101000a900460ff168092919061083c906126b0565b91906101000a81548160ff021916908360ff160217905550505050565b6000610863611a15565b73ffffffffffffffffffffffffffffffffffffffff16610881610965565b73ffffffffffffffffffffffffffffffffffffffff16146108d7576040517f08c379a00000000000000000000000000000000000000000000000000000000081526004016108ce9061235a565b60405180910390fd5b47905090565b6108e5611a15565b73ffffffffffffffffffffffffffffffffffffffff16610903610965565b73ffffffffffffffffffffffffffffffffffffffff1614610959576040517f08c379a00000000000000000000000000000000000000000000000000000000081526004016109509061235a565b60405180910390fd5b6109636000611a5f565b565b60008060009054906101000a900473ffffffffffffffffffffffffffffffffffffffff16905090565b600080604051806080016040528060008152602001600081526020016040518060600160405280600060ff168152602001600060ff168152602001600060ff168152508152602001600073ffffffffffffffffffffffffffffffffffffffff16815250905060005b600780549050811015610bb657836009600083815260200190815260200160002054148015610a735750816020015160078281548110610a5f577f4e487b7100000000000000000000000000000000000000000000000000000000600052603260045260246000fd5b906000526020600020906004020160010154115b15610ba35760078181548110610ab2577f4e487b7100000000000000000000000000000000000000000000000000000000600052603260045260246000fd5b90600052602060002090600402016040518060800160405290816000820154815260200160018201548152602001600282016040518060600160405290816000820160009054906101000a900460ff1660ff1660ff1681526020016000820160019054906101000a900460ff1660ff1660ff1681526020016000820160029054906101000a900460ff1660ff1660ff168152505081526020016003820160009054906101000a900473ffffffffffffffffffffffffffffffffffffffff1673ffffffffffffffffffffffffffffffffffffffff1673ffffffffffffffffffffffffffffffffffffffff168152505091505b8080610bae90612667565b9150506109f6565b508060000151915050919050565b6060600060068381548110610c02577f4e487b7100000000000000000000000000000000000000000000000000000000600052603260045260246000fd5b906000526020600020906007020160050160009054906101000a900460ff1660ff16905060008167ffffffffffffffff811115610c68577f4e487b7100000000000000000000000000000000000000000000000000000000600052604160045260246000fd5b604051908082528060200260200182016040528015610ca157816020015b610c8e611c20565b815260200190600190039081610c865790505b50905060005b600780549050811015610e4f578460096000838152602001908152602001600020541415610e3c5760078181548110610d09577f4e487b7100000000000000000000000000000000000000000000000000000000600052603260045260246000fd5b90600052602060002090600402016040518060800160405290816000820154815260200160018201548152602001600282016040518060600160405290816000820160009054906101000a900460ff1660ff1660ff1681526020016000820160019054906101000a900460ff1660ff1660ff1681526020016000820160029054906101000a900460ff1660ff1660ff168152505081526020016003820160009054906101000a900473ffffffffffffffffffffffffffffffffffffffff1673ffffffffffffffffffffffffffffffffffffffff1673ffffffffffffffffffffffffffffffffffffffff1681525050828281518110610e30577f4e487b7100000000000000000000000000000000000000000000000000000000600052603260045260246000fd5b60200260200101819052505b8080610e4790612667565b915050610ca7565b508092505050919050565b610e62611a15565b73ffffffffffffffffffffffffffffffffffffffff16610e80610965565b73ffffffffffffffffffffffffffffffffffffffff1614610ed6576040517f08c379a0000000000000000000000000000000000000000000000000000000008152600401610ecd9061235a565b60405180910390fd5b6000610ee18261098e565b90506000600560068481548110610f21577f4e487b7100000000000000000000000000000000000000000000000000000000600052603260045260246000fd5b90600052602060002090600702016001015481548110610f6a577f4e487b7100000000000000000000000000000000000000000000000000000000600052603260045260246000fd5b906000526020600020906008020160010154905060006002600085815260200190815260200160002054905060006002600086815260200190815260200160002081905550600160009054906101000a900473ffffffffffffffffffffffffffffffffffffffff1673ffffffffffffffffffffffffffffffffffffffff166108fc829081150290604051600060405180830381858888f19350505050158015611017573d6000803e3d6000fd5b5060078381548110611052577f4e487b7100000000000000000000000000000000000000000000000000000000600052603260045260246000fd5b906000526020600020906004020160030160009054906101000a900473ffffffffffffffffffffffffffffffffffffffff1673ffffffffffffffffffffffffffffffffffffffff166108fc839081150290604051600060405180830381858888f193505050501580156110c9573d6000803e3d6000fd5b5050505050565b600060056006838154811061110e577f4e487b7100000000000000000000000000000000000000000000000000000000600052603260045260246000fd5b90600052602060002090600702016001015481548110611157577f4e487b7100000000000000000000000000000000000000000000000000000000600052603260045260246000fd5b9060005260206000209060080201600201549050919050565b611178611a15565b73ffffffffffffffffffffffffffffffffffffffff16611196610965565b73ffffffffffffffffffffffffffffffffffffffff16146111ec576040517f08c379a00000000000000000000000000000000000000000000000000000000081526004016111e39061235a565b60405180910390fd5b600073ffffffffffffffffffffffffffffffffffffffff168173ffffffffffffffffffffffffffffffffffffffff16141561125c576040517f08c379a00000000000000000000000000000000000000000000000000000000081526004016112539061233a565b60405180910390fd5b61126581611a5f565b50565b611270611a15565b73ffffffffffffffffffffffffffffffffffffffff1661128e610965565b73ffffffffffffffffffffffffffffffffffffffff16146112e4576040517f08c379a00000000000000000000000000000000000000000000000000000000081526004016112db9061235a565b60405180910390fd5b60006112f260046000611a1d565b9050600060058581548110611330577f4e487b7100000000000000000000000000000000000000000000000000000000600052603260045260246000fd5b9060005260206000209060080201905061134c81600701611b23565b60066040518060e0016040528084815260200187815260200161137184600701611b39565b8152602001868152602001858152602001600060ff168152602001604051806020016040528060008152508152509080600181540180825580915050600190039060005260206000209060070201600090919091909150600082015181600001556020820151816001015560408201518160020155606082015181600301556080820151816004015560a08201518160050160006101000a81548160ff021916908360ff16021790555060c0820151816006019080519060200190611437929190611b5a565b50505081600a6000878152602001908152602001600020819055505050505050565b600060068281548110611495577f4e487b7100000000000000000000000000000000000000000000000000000000600052603260045260246000fd5b9060005260206000209060070201905060058160000154815481106114e3577f4e487b7100000000000000000000000000000000000000000000000000000000600052603260045260246000fd5b9060005260206000209060080201600201543414611536576040517f08c379a000000000000000000000000000000000000000000000000000000000815260040161152d9061231a565b60405180910390fd5b80600501600081819054906101000a900460ff1680929190611557906126b0565b91906101000a81548160ff021916908360ff1602179055505060076040518060800160405280858152602001600081526020016040518060600160405280600060ff168152602001600060ff168152602001600060ff1681525081526020013373ffffffffffffffffffffffffffffffffffffffff168152509080600181540180825580915050600190039060005260206000209060040201600090919091909150600082015181600001556020820151816001015560408201518160020160008201518160000160006101000a81548160ff021916908360ff16021790555060208201518160000160016101000a81548160ff021916908360ff16021790555060408201518160000160026101000a81548160ff021916908360ff160217905550505060608201518160030160006101000a81548173ffffffffffffffffffffffffffffffffffffffff021916908373ffffffffffffffffffffffffffffffffffffffff1602179055505050600060016007805490506116d89190612533565b90508260096000838152602001908152602001600020819055506000600c54346117029190612502565b905080346117109190612533565b600584600001548154811061174e577f4e487b7100000000000000000000000000000000000000000000000000000000600052603260045260246000fd5b9060005260206000209060080201600101600082825461176e91906124ac565b925050819055508060026000868152602001908152602001600020600082825461179891906124ac565b925050819055505050505050565b60606005805480602002602001604051908101604052809291908181526020016000905b82821015611a0c57838290600052602060002090600802016040518061010001604052908160008201548152602001600182015481526020016002820154815260200160038201805461181c90612604565b80601f016020809104026020016040519081016040528092919081815260200182805461184890612604565b80156118955780601f1061186a57610100808354040283529160200191611895565b820191906000526020600020905b81548152906001019060200180831161187857829003601f168201915b505050505081526020016004820180546118ae90612604565b80601f01602080910402602001604051908101604052809291908181526020018280546118da90612604565b80156119275780601f106118fc57610100808354040283529160200191611927565b820191906000526020600020905b81548152906001019060200180831161190a57829003601f168201915b5050505050815260200160058201805461194090612604565b80601f016020809104026020016040519081016040528092919081815260200182805461196c90612604565b80156119b95780601f1061198e576101008083540402835291602001916119b9565b820191906000526020600020905b81548152906001019060200180831161199c57829003601f168201915b505050505081526020016006820160009054906101000a900460ff1660ff1660ff1681526020016007820160405180602001604052908160008201548152505081525050815260200190600101906117ca565b50505050905090565b600033905090565b60008115611a3e57611a2e83611b23565b611a3783611b39565b9050611a59565b6000611a4984611b39565b9050611a5484611b23565b809150505b92915050565b60008060009054906101000a900473ffffffffffffffffffffffffffffffffffffffff169050816000806101000a81548173ffffffffffffffffffffffffffffffffffffffff021916908373ffffffffffffffffffffffffffffffffffffffff1602179055508173ffffffffffffffffffffffffffffffffffffffff168173ffffffffffffffffffffffffffffffffffffffff167f8be0079c531659141344cd1fd0a4f28419497f9722a3daafe3b4186f6b6457e060405160405180910390a35050565b6001816000016000828254019250508190555050565b600081600001549050919050565b6040518060200160405280600081525090565b828054611b6690612604565b90600052602060002090601f016020900481019282611b885760008555611bcf565b82601f10611ba157805160ff1916838001178555611bcf565b82800160010185558215611bcf579182015b82811115611bce578251825591602001919060010190611bb3565b5b509050611bdc9190611c64565b5090565b6040518060e001604052806000815260200160008152602001600081526020016000815260200160008152602001600060ff168152602001606081525090565b60405180608001604052806000815260200160008152602001611c41611c81565b8152602001600073ffffffffffffffffffffffffffffffffffffffff1681525090565b5b80821115611c7d576000816000905550600101611c65565b5090565b6040518060600160405280600060ff168152602001600060ff168152602001600060ff1681525090565b6000611cbe611cb9846123dc565b6123b7565b905082815260208101848484011115611cd657600080fd5b611ce18482856125c2565b509392505050565b600081359050611cf881612848565b92915050565b600082601f830112611d0f57600080fd5b8135611d1f848260208601611cab565b91505092915050565b600081359050611d378161285f565b92915050565b600081359050611d4c81612876565b92915050565b600060208284031215611d6457600080fd5b6000611d7284828501611ce9565b91505092915050565b60008060008060808587031215611d9157600080fd5b600085013567ffffffffffffffff811115611dab57600080fd5b611db787828801611cfe565b945050602085013567ffffffffffffffff811115611dd457600080fd5b611de087828801611cfe565b9350506040611df187828801611d3d565b9250506060611e0287828801611d28565b91505092959194509250565b600060208284031215611e2057600080fd5b6000611e2e84828501611d28565b91505092915050565b60008060408385031215611e4a57600080fd5b6000611e5885828601611d28565b9250506020611e6985828601611d28565b9150509250929050565b600080600060608486031215611e8857600080fd5b6000611e9686828701611d28565b9350506020611ea786828701611d28565b9250506040611eb886828701611d28565b9150509250925092565b6000611ece838361217b565b60c08301905092915050565b6000611ee683836121d0565b905092915050565b611ef781612579565b82525050565b611f0681612567565b82525050565b6000611f178261242d565b611f218185612468565b9350611f2c8361240d565b8060005b83811015611f5d578151611f448882611ec2565b9750611f4f8361244e565b925050600181019050611f30565b5085935050505092915050565b6000611f7582612438565b611f7f8185612479565b935083602082028501611f918561241d565b8060005b85811015611fcd5784840389528151611fae8582611eda565b9450611fb98361245b565b925060208a01995050600181019050611f95565b50829750879550505050505092915050565b6000611fea82612443565b611ff4818561248a565b93506120048185602086016125d1565b61200d81612796565b840191505092915050565b6000612025601d8361249b565b9150612030826127a7565b602082019050919050565b600061204860268361249b565b9150612053826127d0565b604082019050919050565b600061206b60208361249b565b91506120768261281f565b602082019050919050565b602082016000820151612097600085018261228e565b50505050565b6060820160008201516120b360008501826122ac565b5060208201516120c660208501826122ac565b5060408201516120d960408501826122ac565b50505050565b600060e0830160008301516120f7600086018261228e565b50602083015161210a602086018261228e565b50604083015161211d604086018261228e565b506060830151612130606086018261228e565b506080830151612143608086018261228e565b5060a083015161215660a08601826122ac565b5060c083015184820360c086015261216e8282611fdf565b9150508091505092915050565b60c082016000820151612191600085018261228e565b5060208201516121a4602085018261228e565b5060408201516121b7604085018261209d565b5060608201516121ca60a0850182611eee565b50505050565b6000610100830160008301516121e9600086018261228e565b5060208301516121fc602086018261228e565b50604083015161220f604086018261228e565b50606083015184820360608601526122278282611fdf565b915050608083015184820360808601526122418282611fdf565b91505060a083015184820360a086015261225b8282611fdf565b91505060c083015161227060c08601826122ac565b5060e083015161228360e0860182612081565b508091505092915050565b612297816125ab565b82525050565b6122a6816125ab565b82525050565b6122b5816125b5565b82525050565b60006020820190506122d06000830184611efd565b92915050565b600060208201905081810360008301526122f08184611f0c565b905092915050565b600060208201905081810360008301526123128184611f6a565b905092915050565b6000602082019050818103600083015261233381612018565b9050919050565b600060208201905081810360008301526123538161203b565b9050919050565b600060208201905081810360008301526123738161205e565b9050919050565b6000602082019050818103600083015261239481846120df565b905092915050565b60006020820190506123b1600083018461229d565b92915050565b60006123c16123d2565b90506123cd8282612636565b919050565b6000604051905090565b600067ffffffffffffffff8211156123f7576123f6612767565b5b61240082612796565b9050602081019050919050565b6000819050602082019050919050565b6000819050602082019050919050565b600081519050919050565b600081519050919050565b600081519050919050565b6000602082019050919050565b6000602082019050919050565b600082825260208201905092915050565b600082825260208201905092915050565b600082825260208201905092915050565b600082825260208201905092915050565b60006124b7826125ab565b91506124c2836125ab565b9250827fffffffffffffffffffffffffffffffffffffffffffffffffffffffffffffffff038211156124f7576124f66126da565b5b828201905092915050565b600061250d826125ab565b9150612518836125ab565b92508261252857612527612709565b5b828204905092915050565b600061253e826125ab565b9150612549836125ab565b92508282101561255c5761255b6126da565b5b828203905092915050565b60006125728261258b565b9050919050565b60006125848261258b565b9050919050565b600073ffffffffffffffffffffffffffffffffffffffff82169050919050565b6000819050919050565b600060ff82169050919050565b82818337600083830152505050565b60005b838110156125ef5780820151818401526020810190506125d4565b838111156125fe576000848401525b50505050565b6000600282049050600182168061261c57607f821691505b602082108114156126305761262f612738565b5b50919050565b61263f82612796565b810181811067ffffffffffffffff8211171561265e5761265d612767565b5b80604052505050565b6000612672826125ab565b91507fffffffffffffffffffffffffffffffffffffffffffffffffffffffffffffffff8214156126a5576126a46126da565b5b600182019050919050565b60006126bb826125b5565b915060ff8214156126cf576126ce6126da565b5b600182019050919050565b7f4e487b7100000000000000000000000000000000000000000000000000000000600052601160045260246000fd5b7f4e487b7100000000000000000000000000000000000000000000000000000000600052601260045260246000fd5b7f4e487b7100000000000000000000000000000000000000000000000000000000600052602260045260246000fd5b7f4e487b7100000000000000000000000000000000000000000000000000000000600052604160045260246000fd5b6000601f19601f8301169050919050565b7f53686f756c64207061792074686520746f75726e616d656e7420666565000000600082015250565b7f4f776e61626c653a206e6577206f776e657220697320746865207a65726f206160008201527f6464726573730000000000000000000000000000000000000000000000000000602082015250565b7f4f776e61626c653a2063616c6c6572206973206e6f7420746865206f776e6572600082015250565b61285181612567565b811461285c57600080fd5b50565b612868816125ab565b811461287357600080fd5b50565b61287f816125b5565b811461288a57600080fd5b5056fea2646970667358221220f64eed4d8bc1592a18ab97e14321e61aa6c88c488d32ec9eea22f1882956ecb564736f6c63430008040033",
  "linkReferences": {},
  "deployedLinkReferences": {}
}