{
  "_format": "hh-sol-artifact-1",
  "contractName": "CockFighterNFT",
  "sourceName": "src/contracts/NFT/CockFighterNFT.sol",
  "abi": [
    {
      "inputs": [
        {
          "internalType": "address",
          "name": "_tournamentContract",
          "type": "address"
        },
        {
          "internalType": "address",
          "name": "_marketAddress",
          "type": "address"
        }
      ],
      "stateMutability": "nonpayable",
      "type": "constructor"
    },
    {
      "anonymous": false,
      "inputs": [
        {
          "indexed": true,
          "internalType": "address",
          "name": "owner",
          "type": "address"
        },
        {
          "indexed": true,
          "internalType": "address",
          "name": "approved",
          "type": "address"
        },
        {
          "indexed": true,
          "internalType": "uint256",
          "name": "tokenId",
          "type": "uint256"
        }
      ],
      "name": "Approval",
      "type": "event"
    },
    {
      "anonymous": false,
      "inputs": [
        {
          "indexed": true,
          "internalType": "address",
          "name": "owner",
          "type": "address"
        },
        {
          "indexed": true,
          "internalType": "address",
          "name": "operator",
          "type": "address"
        },
        {
          "indexed": false,
          "internalType": "bool",
          "name": "approved",
          "type": "bool"
        }
      ],
      "name": "ApprovalForAll",
      "type": "event"
    },
    {
      "anonymous": false,
      "inputs": [
        {
          "indexed": true,
          "internalType": "address",
          "name": "previousOwner",
          "type": "address"
        },
        {
          "indexed": true,
          "internalType": "address",
          "name": "newOwner",
          "type": "address"
        }
      ],
      "name": "OwnershipTransferred",
      "type": "event"
    },
    {
      "anonymous": false,
      "inputs": [
        {
          "indexed": true,
          "internalType": "address",
          "name": "from",
          "type": "address"
        },
        {
          "indexed": true,
          "internalType": "address",
          "name": "to",
          "type": "address"
        },
        {
          "indexed": true,
          "internalType": "uint256",
          "name": "tokenId",
          "type": "uint256"
        }
      ],
      "name": "Transfer",
      "type": "event"
    },
    {
      "inputs": [
        {
          "internalType": "address",
          "name": "to",
          "type": "address"
        },
        {
          "internalType": "uint256",
          "name": "tokenId",
          "type": "uint256"
        }
      ],
      "name": "approve",
      "outputs": [],
      "stateMutability": "nonpayable",
      "type": "function"
    },
    {
      "inputs": [
        {
          "internalType": "address",
          "name": "owner",
          "type": "address"
        }
      ],
      "name": "balanceOf",
      "outputs": [
        {
          "internalType": "uint256",
          "name": "",
          "type": "uint256"
        }
      ],
      "stateMutability": "view",
      "type": "function"
    },
    {
      "inputs": [
        {
          "internalType": "string",
          "name": "_tokenURI",
          "type": "string"
        },
        {
          "internalType": "string",
          "name": "_name",
          "type": "string"
        }
      ],
      "name": "createCollectible",
      "outputs": [],
      "stateMutability": "nonpayable",
      "type": "function"
    },
    {
      "inputs": [
        {
          "internalType": "uint256",
          "name": "tokenId",
          "type": "uint256"
        }
      ],
      "name": "getApproved",
      "outputs": [
        {
          "internalType": "address",
          "name": "",
          "type": "address"
        }
      ],
      "stateMutability": "view",
      "type": "function"
    },
    {
      "inputs": [
        {
          "internalType": "enum CockFighter.Breed",
          "name": "_breed",
          "type": "uint8"
        },
        {
          "components": [
            {
              "internalType": "uint64",
              "name": "strength",
              "type": "uint64"
            },
            {
              "internalType": "uint64",
              "name": "speed",
              "type": "uint64"
            },
            {
              "internalType": "uint64",
              "name": "agility",
              "type": "uint64"
            }
          ],
          "internalType": "struct CockFighter.BreedAttributes",
          "name": "_attributes",
          "type": "tuple"
        }
      ],
      "name": "getBreed",
      "outputs": [
        {
          "components": [
            {
              "internalType": "uint64",
              "name": "strength",
              "type": "uint64"
            },
            {
              "internalType": "uint64",
              "name": "speed",
              "type": "uint64"
            },
            {
              "internalType": "uint64",
              "name": "agility",
              "type": "uint64"
            }
          ],
          "internalType": "struct CockFighter.BreedAttributes",
          "name": "",
          "type": "tuple"
        }
      ],
      "stateMutability": "view",
      "type": "function"
    },
    {
      "inputs": [
        {
          "internalType": "address",
          "name": "owner",
          "type": "address"
        },
        {
          "internalType": "address",
          "name": "operator",
          "type": "address"
        }
      ],
      "name": "isApprovedForAll",
      "outputs": [
        {
          "internalType": "bool",
          "name": "",
          "type": "bool"
        }
      ],
      "stateMutability": "view",
      "type": "function"
    },
    {
      "inputs": [
        {
          "internalType": "string",
          "name": "_tokenURI",
          "type": "string"
        },
        {
          "internalType": "string",
          "name": "_name",
          "type": "string"
        },
        {
          "internalType": "uint256",
          "name": "_dna",
          "type": "uint256"
        }
      ],
      "name": "mintCollectible",
      "outputs": [],
      "stateMutability": "nonpayable",
      "type": "function"
    },
    {
      "inputs": [],
      "name": "name",
      "outputs": [
        {
          "internalType": "string",
          "name": "",
          "type": "string"
        }
      ],
      "stateMutability": "view",
      "type": "function"
    },
    {
      "inputs": [],
      "name": "owner",
      "outputs": [
        {
          "internalType": "address",
          "name": "",
          "type": "address"
        }
      ],
      "stateMutability": "view",
      "type": "function"
    },
    {
      "inputs": [
        {
          "internalType": "uint256",
          "name": "tokenId",
          "type": "uint256"
        }
      ],
      "name": "ownerOf",
      "outputs": [
        {
          "internalType": "address",
          "name": "",
          "type": "address"
        }
      ],
      "stateMutability": "view",
      "type": "function"
    },
    {
      "inputs": [],
      "name": "renounceOwnership",
      "outputs": [],
      "stateMutability": "nonpayable",
      "type": "function"
    },
    {
      "inputs": [
        {
          "internalType": "address",
          "name": "from",
          "type": "address"
        },
        {
          "internalType": "address",
          "name": "to",
          "type": "address"
        },
        {
          "internalType": "uint256",
          "name": "tokenId",
          "type": "uint256"
        }
      ],
      "name": "safeTransferFrom",
      "outputs": [],
      "stateMutability": "nonpayable",
      "type": "function"
    },
    {
      "inputs": [
        {
          "internalType": "address",
          "name": "from",
          "type": "address"
        },
        {
          "internalType": "address",
          "name": "to",
          "type": "address"
        },
        {
          "internalType": "uint256",
          "name": "tokenId",
          "type": "uint256"
        },
        {
          "internalType": "bytes",
          "name": "_data",
          "type": "bytes"
        }
      ],
      "name": "safeTransferFrom",
      "outputs": [],
      "stateMutability": "nonpayable",
      "type": "function"
    },
    {
      "inputs": [
        {
          "internalType": "address",
          "name": "operator",
          "type": "address"
        },
        {
          "internalType": "bool",
          "name": "approved",
          "type": "bool"
        }
      ],
      "name": "setApprovalForAll",
      "outputs": [],
      "stateMutability": "nonpayable",
      "type": "function"
    },
    {
      "inputs": [
        {
          "internalType": "uint256",
          "name": "_tokenId",
          "type": "uint256"
        },
        {
          "internalType": "string",
          "name": "_tokenURI",
          "type": "string"
        }
      ],
      "name": "setTokenURI",
      "outputs": [],
      "stateMutability": "nonpayable",
      "type": "function"
    },
    {
      "inputs": [
        {
          "internalType": "bytes4",
          "name": "interfaceId",
          "type": "bytes4"
        }
      ],
      "name": "supportsInterface",
      "outputs": [
        {
          "internalType": "bool",
          "name": "",
          "type": "bool"
        }
      ],
      "stateMutability": "view",
      "type": "function"
    },
    {
      "inputs": [],
      "name": "symbol",
      "outputs": [
        {
          "internalType": "string",
          "name": "",
          "type": "string"
        }
      ],
      "stateMutability": "view",
      "type": "function"
    },
    {
      "inputs": [
        {
          "internalType": "uint256",
          "name": "",
          "type": "uint256"
        }
      ],
      "name": "tokenIdToAttributes",
      "outputs": [
        {
          "internalType": "enum CockFighter.Breed",
          "name": "breed",
          "type": "uint8"
        },
        {
          "internalType": "enum CockFighter.Color",
          "name": "bodyColor",
          "type": "uint8"
        },
        {
          "internalType": "enum CockFighter.Color",
          "name": "backColor",
          "type": "uint8"
        },
        {
          "internalType": "string",
          "name": "name",
          "type": "string"
        }
      ],
      "stateMutability": "view",
      "type": "function"
    },
    {
      "inputs": [
        {
          "internalType": "uint256",
          "name": "",
          "type": "uint256"
        }
      ],
      "name": "tokenIdToStats",
      "outputs": [
        {
          "internalType": "uint256",
          "name": "health",
          "type": "uint256"
        },
        {
          "internalType": "uint256",
          "name": "HP",
          "type": "uint256"
        },
        {
          "internalType": "uint64",
          "name": "strength",
          "type": "uint64"
        },
        {
          "internalType": "uint64",
          "name": "speed",
          "type": "uint64"
        },
        {
          "internalType": "uint64",
          "name": "agility",
          "type": "uint64"
        },
        {
          "components": [
            {
              "internalType": "uint256",
              "name": "wins",
              "type": "uint256"
            },
            {
              "internalType": "uint256",
              "name": "losses",
              "type": "uint256"
            }
          ],
          "internalType": "struct CockFighter.Record",
          "name": "record",
          "type": "tuple"
        },
        {
          "internalType": "uint16",
          "name": "points",
          "type": "uint16"
        }
      ],
      "stateMutability": "view",
      "type": "function"
    },
    {
      "inputs": [
        {
          "internalType": "uint256",
          "name": "tokenId",
          "type": "uint256"
        }
      ],
      "name": "tokenURI",
      "outputs": [
        {
          "internalType": "string",
          "name": "",
          "type": "string"
        }
      ],
      "stateMutability": "view",
      "type": "function"
    },
    {
      "inputs": [
        {
          "internalType": "address",
          "name": "from",
          "type": "address"
        },
        {
          "internalType": "address",
          "name": "to",
          "type": "address"
        },
        {
          "internalType": "uint256",
          "name": "tokenId",
          "type": "uint256"
        }
      ],
      "name": "transferFrom",
      "outputs": [],
      "stateMutability": "nonpayable",
      "type": "function"
    },
    {
      "inputs": [
        {
          "internalType": "address",
          "name": "newOwner",
          "type": "address"
        }
      ],
      "name": "transferOwnership",
      "outputs": [],
      "stateMutability": "nonpayable",
      "type": "function"
    }
  ],
  "bytecode": "0x6080604052603c6007556010600855600854600a6200001f919062000704565b6009556040518060600160405280600367ffffffffffffffff168152602001600a67ffffffffffffffff168152602001600a67ffffffffffffffff16815250600a60008201518160000160006101000a81548167ffffffffffffffff021916908367ffffffffffffffff16021790555060208201518160000160086101000a81548167ffffffffffffffff021916908367ffffffffffffffff16021790555060408201518160000160106101000a81548167ffffffffffffffff021916908367ffffffffffffffff16021790555050506040518060600160405280600567ffffffffffffffff168152602001600567ffffffffffffffff168152602001600567ffffffffffffffff16815250600b60008201518160000160006101000a81548167ffffffffffffffff021916908367ffffffffffffffff16021790555060208201518160000160086101000a81548167ffffffffffffffff021916908367ffffffffffffffff16021790555060408201518160000160106101000a81548167ffffffffffffffff021916908367ffffffffffffffff16021790555050506040518060600160405280600a67ffffffffffffffff168152602001600767ffffffffffffffff168152602001600567ffffffffffffffff16815250600c60008201518160000160006101000a81548167ffffffffffffffff021916908367ffffffffffffffff16021790555060208201518160000160086101000a81548167ffffffffffffffff021916908367ffffffffffffffff16021790555060408201518160000160106101000a81548167ffffffffffffffff021916908367ffffffffffffffff16021790555050506040518060600160405280600f67ffffffffffffffff168152602001600767ffffffffffffffff168152602001600767ffffffffffffffff16815250600d60008201518160000160006101000a81548167ffffffffffffffff021916908367ffffffffffffffff16021790555060208201518160000160086101000a81548167ffffffffffffffff021916908367ffffffffffffffff16021790555060408201518160000160106101000a81548167ffffffffffffffff021916908367ffffffffffffffff16021790555050503480156200036357600080fd5b5060405162004ba038038062004ba0833981810160405281019062000389919062000668565b6040518060400160405280600f81526020017f43727970746f436f636b466967687400000000000000000000000000000000008152506040518060400160405280600381526020017f434346000000000000000000000000000000000000000000000000000000000081525081600090805190602001906200040d929190620005a1565b50806001908051906020019062000426929190620005a1565b505050620004496200043d620004d360201b60201c565b620004db60201b60201c565b81601260006101000a81548173ffffffffffffffffffffffffffffffffffffffff021916908373ffffffffffffffffffffffffffffffffffffffff16021790555080601360006101000a81548173ffffffffffffffffffffffffffffffffffffffff021916908373ffffffffffffffffffffffffffffffffffffffff16021790555050506200093a565b600033905090565b6000600e60009054906101000a900473ffffffffffffffffffffffffffffffffffffffff16905081600e60006101000a81548173ffffffffffffffffffffffffffffffffffffffff021916908373ffffffffffffffffffffffffffffffffffffffff1602179055508173ffffffffffffffffffffffffffffffffffffffff168173ffffffffffffffffffffffffffffffffffffffff167f8be0079c531659141344cd1fd0a4f28419497f9722a3daafe3b4186f6b6457e060405160405180910390a35050565b828054620005af906200087f565b90600052602060002090601f016020900481019282620005d357600085556200061f565b82601f10620005ee57805160ff19168380011785556200061f565b828001600101855582156200061f579182015b828111156200061e57825182559160200191906001019062000601565b5b5090506200062e919062000632565b5090565b5b808211156200064d57600081600090555060010162000633565b5090565b600081519050620006628162000920565b92915050565b600080604083850312156200067c57600080fd5b60006200068c8582860162000651565b92505060206200069f8582860162000651565b9150509250929050565b6000808291508390505b6001851115620006fb57808604811115620006d357620006d2620008b5565b5b6001851615620006e35780820291505b8081029050620006f38562000913565b9450620006b3565b94509492505050565b6000620007118262000875565b91506200071e8362000875565b92506200074d7fffffffffffffffffffffffffffffffffffffffffffffffffffffffffffffffff848462000755565b905092915050565b6000826200076757600190506200083a565b816200077757600090506200083a565b81600181146200079057600281146200079b57620007d1565b60019150506200083a565b60ff841115620007b057620007af620008b5565b5b8360020a915084821115620007ca57620007c9620008b5565b5b506200083a565b5060208310610133831016604e8410600b84101617156200080b5782820a905083811115620008055762000804620008b5565b5b6200083a565b6200081a8484846001620006a9565b92509050818404811115620008345762000833620008b5565b5b81810290505b9392505050565b60006200084e8262000855565b9050919050565b600073ffffffffffffffffffffffffffffffffffffffff82169050919050565b6000819050919050565b600060028204905060018216806200089857607f821691505b60208210811415620008af57620008ae620008e4565b5b50919050565b7f4e487b7100000000000000000000000000000000000000000000000000000000600052601160045260246000fd5b7f4e487b7100000000000000000000000000000000000000000000000000000000600052602260045260246000fd5b60008160011c9050919050565b6200092b8162000841565b81146200093757600080fd5b50565b614256806200094a6000396000f3fe608060405234801561001057600080fd5b50600436106101425760003560e01c806388bff8c0116100b8578063b88d4fde1161007c578063b88d4fde14610376578063c87b56dd14610392578063c87bfc7f146103c2578063d2559e99146103f8578063e985e9c514610414578063f2fde38b1461044457610142565b806388bff8c0146102d25780638da5cb5b146102ee57806395d89b411461030c578063a22cb4651461032a578063b327a31b1461034657610142565b8063162094c41161010a578063162094c41461021457806323b872dd1461023057806342842e0e1461024c5780636352211e1461026857806370a0823114610298578063715018a6146102c857610142565b806301ffc9a71461014757806306fdde0314610177578063081812fc14610195578063095ea7b3146101c55780631177f379146101e1575b600080fd5b610161600480360381019061015c9190612da9565b610460565b60405161016e9190613452565b60405180910390f35b61017f610542565b60405161018c91906134b9565b60405180910390f35b6101af60048036038101906101aa9190612f22565b6105d4565b6040516101bc91906133eb565b60405180910390f35b6101df60048036038101906101da9190612d6d565b610659565b005b6101fb60048036038101906101f69190612f22565b610771565b60405161020b949392919061346d565b60405180910390f35b61022e60048036038101906102299190612f4b565b610850565b005b61024a60048036038101906102459190612c67565b6108a7565b005b61026660048036038101906102619190612c67565b610907565b005b610282600480360381019061027d9190612f22565b610927565b60405161028f91906133eb565b60405180910390f35b6102b260048036038101906102ad9190612c02565b6109d9565b6040516102bf9190613736565b60405180910390f35b6102d0610a91565b005b6102ec60048036038101906102e79190612ea3565b610b19565b005b6102f6610bff565b60405161030391906133eb565b60405180910390f35b610314610c29565b60405161032191906134b9565b60405180910390f35b610344600480360381019061033f9190612d31565b610cbb565b005b610360600480360381019061035b9190612dfb565b610e3c565b60405161036d919061371b565b60405180910390f35b610390600480360381019061038b9190612cb6565b611300565b005b6103ac60048036038101906103a79190612f22565b611362565b6040516103b991906134b9565b60405180910390f35b6103dc60048036038101906103d79190612f22565b6114b4565b6040516103ef9796959493929190613751565b60405180910390f35b610412600480360381019061040d9190612e37565b61155e565b005b61042e60048036038101906104299190612c2b565b6115d5565b60405161043b9190613452565b60405180910390f35b61045e60048036038101906104599190612c02565b611669565b005b60007f80ac58cd000000000000000000000000000000000000000000000000000000007bffffffffffffffffffffffffffffffffffffffffffffffffffffffff1916827bffffffffffffffffffffffffffffffffffffffffffffffffffffffff1916148061052b57507f5b5e139f000000000000000000000000000000000000000000000000000000007bffffffffffffffffffffffffffffffffffffffffffffffffffffffff1916827bffffffffffffffffffffffffffffffffffffffffffffffffffffffff1916145b8061053b575061053a82611761565b5b9050919050565b60606000805461055190613aa6565b80601f016020809104026020016040519081016040528092919081815260200182805461057d90613aa6565b80156105ca5780601f1061059f576101008083540402835291602001916105ca565b820191906000526020600020905b8154815290600101906020018083116105ad57829003601f168201915b5050505050905090565b60006105df826117cb565b61061e576040517f08c379a00000000000000000000000000000000000000000000000000000000081526004016106159061365b565b60405180910390fd5b6004600083815260200190815260200160002060009054906101000a900473ffffffffffffffffffffffffffffffffffffffff169050919050565b600061066482610927565b90508073ffffffffffffffffffffffffffffffffffffffff168373ffffffffffffffffffffffffffffffffffffffff1614156106d5576040517f08c379a00000000000000000000000000000000000000000000000000000000081526004016106cc906136db565b60405180910390fd5b8073ffffffffffffffffffffffffffffffffffffffff166106f4611837565b73ffffffffffffffffffffffffffffffffffffffff16148061072357506107228161071d611837565b6115d5565b5b610762576040517f08c379a00000000000000000000000000000000000000000000000000000000081526004016107599061359b565b60405180910390fd5b61076c838361183f565b505050565b600f6020528060005260406000206000915090508060000160009054906101000a900460ff16908060000160019054906101000a900460ff16908060000160029054906101000a900460ff16908060010180546107cd90613aa6565b80601f01602080910402602001604051908101604052809291908181526020018280546107f990613aa6565b80156108465780601f1061081b57610100808354040283529160200191610846565b820191906000526020600020905b81548152906001019060200180831161082957829003601f168201915b5050505050905084565b61085a33836118f8565b610899576040517f08c379a0000000000000000000000000000000000000000000000000000000008152600401610890906136fb565b60405180910390fd5b6108a382826119d6565b5050565b6108b86108b2611837565b826118f8565b6108f7576040517f08c379a00000000000000000000000000000000000000000000000000000000081526004016108ee906136fb565b60405180910390fd5b610902838383611a4a565b505050565b61092283838360405180602001604052806000815250611300565b505050565b6000806002600084815260200190815260200160002060009054906101000a900473ffffffffffffffffffffffffffffffffffffffff169050600073ffffffffffffffffffffffffffffffffffffffff168173ffffffffffffffffffffffffffffffffffffffff1614156109d0576040517f08c379a00000000000000000000000000000000000000000000000000000000081526004016109c7906135db565b60405180910390fd5b80915050919050565b60008073ffffffffffffffffffffffffffffffffffffffff168273ffffffffffffffffffffffffffffffffffffffff161415610a4a576040517f08c379a0000000000000000000000000000000000000000000000000000000008152600401610a41906135bb565b60405180910390fd5b600360008373ffffffffffffffffffffffffffffffffffffffff1673ffffffffffffffffffffffffffffffffffffffff168152602001908152602001600020549050919050565b610a99611837565b73ffffffffffffffffffffffffffffffffffffffff16610ab7610bff565b73ffffffffffffffffffffffffffffffffffffffff1614610b0d576040517f08c379a0000000000000000000000000000000000000000000000000000000008152600401610b049061367b565b60405180910390fd5b610b176000611ca6565b565b610b21611837565b73ffffffffffffffffffffffffffffffffffffffff16610b3f610bff565b73ffffffffffffffffffffffffffffffffffffffff1614610b95576040517f08c379a0000000000000000000000000000000000000000000000000000000008152600401610b8c9061367b565b60405180910390fd5b610ba0838383611d6c565b610bcd601360009054906101000a900473ffffffffffffffffffffffffffffffffffffffff166001610cbb565b610bfa601260009054906101000a900473ffffffffffffffffffffffffffffffffffffffff166001610cbb565b505050565b6000600e60009054906101000a900473ffffffffffffffffffffffffffffffffffffffff16905090565b606060018054610c3890613aa6565b80601f0160208091040260200160405190810160405280929190818152602001828054610c6490613aa6565b8015610cb15780601f10610c8657610100808354040283529160200191610cb1565b820191906000526020600020905b815481529060010190602001808311610c9457829003601f168201915b5050505050905090565b610cc3611837565b73ffffffffffffffffffffffffffffffffffffffff168273ffffffffffffffffffffffffffffffffffffffff161415610d31576040517f08c379a0000000000000000000000000000000000000000000000000000000008152600401610d289061355b565b60405180910390fd5b8060056000610d3e611837565b73ffffffffffffffffffffffffffffffffffffffff1673ffffffffffffffffffffffffffffffffffffffff16815260200190815260200160002060008473ffffffffffffffffffffffffffffffffffffffff1673ffffffffffffffffffffffffffffffffffffffff16815260200190815260200160002060006101000a81548160ff0219169083151502179055508173ffffffffffffffffffffffffffffffffffffffff16610deb611837565b73ffffffffffffffffffffffffffffffffffffffff167f17307eab39ab6107e8899845ad3d59bd9653f200f220920489ca2b5937696c3183604051610e309190613452565b60405180910390a35050565b610e4461295d565b610e4c61295d565b60006003811115610e86577f4e487b7100000000000000000000000000000000000000000000000000000000600052602160045260246000fd5b846003811115610ebf577f4e487b7100000000000000000000000000000000000000000000000000000000600052602160045260246000fd5b1415610f6f57600d6040518060600160405290816000820160009054906101000a900467ffffffffffffffff1667ffffffffffffffff1667ffffffffffffffff1681526020016000820160089054906101000a900467ffffffffffffffff1667ffffffffffffffff1667ffffffffffffffff1681526020016000820160109054906101000a900467ffffffffffffffff1667ffffffffffffffff1667ffffffffffffffff1681525050905061125d565b60016003811115610fa9577f4e487b7100000000000000000000000000000000000000000000000000000000600052602160045260246000fd5b846003811115610fe2577f4e487b7100000000000000000000000000000000000000000000000000000000600052602160045260246000fd5b141561109257600c6040518060600160405290816000820160009054906101000a900467ffffffffffffffff1667ffffffffffffffff1667ffffffffffffffff1681526020016000820160089054906101000a900467ffffffffffffffff1667ffffffffffffffff1667ffffffffffffffff1681526020016000820160109054906101000a900467ffffffffffffffff1667ffffffffffffffff1667ffffffffffffffff1681525050905061125c565b600260038111156110cc577f4e487b7100000000000000000000000000000000000000000000000000000000600052602160045260246000fd5b846003811115611105577f4e487b7100000000000000000000000000000000000000000000000000000000600052602160045260246000fd5b14156111b557600b6040518060600160405290816000820160009054906101000a900467ffffffffffffffff1667ffffffffffffffff1667ffffffffffffffff1681526020016000820160089054906101000a900467ffffffffffffffff1667ffffffffffffffff1667ffffffffffffffff1681526020016000820160109054906101000a900467ffffffffffffffff1667ffffffffffffffff1667ffffffffffffffff1681525050905061125b565b600a6040518060600160405290816000820160009054906101000a900467ffffffffffffffff1667ffffffffffffffff1667ffffffffffffffff1681526020016000820160089054906101000a900467ffffffffffffffff1667ffffffffffffffff1667ffffffffffffffff1681526020016000820160109054906101000a900467ffffffffffffffff1667ffffffffffffffff1667ffffffffffffffff168152505090505b5b5b82600001518160000181815161127391906138e1565b91509067ffffffffffffffff16908167ffffffffffffffff16815250508260200151816020018181516112a691906138e1565b91509067ffffffffffffffff16908167ffffffffffffffff16815250508260400151816040018181516112d991906138e1565b91509067ffffffffffffffff16908167ffffffffffffffff16815250508091505092915050565b61131161130b611837565b836118f8565b611350576040517f08c379a0000000000000000000000000000000000000000000000000000000008152600401611347906136fb565b60405180910390fd5b61135c84848484612237565b50505050565b606061136d826117cb565b6113ac576040517f08c379a00000000000000000000000000000000000000000000000000000000081526004016113a39061363b565b60405180910390fd5b60006006600084815260200190815260200160002080546113cc90613aa6565b80601f01602080910402602001604051908101604052809291908181526020018280546113f890613aa6565b80156114455780601f1061141a57610100808354040283529160200191611445565b820191906000526020600020905b81548152906001019060200180831161142857829003601f168201915b505050505090506000611456612293565b905060008151141561146c5781925050506114af565b6000825111156114a15780826040516020016114899291906133c7565b604051602081830303815290604052925050506114af565b6114aa846122aa565b925050505b919050565b60106020528060005260406000206000915090508060000154908060010154908060020160009054906101000a900467ffffffffffffffff16908060020160089054906101000a900467ffffffffffffffff16908060020160109054906101000a900467ffffffffffffffff16908060030160405180604001604052908160008201548152602001600182015481525050908060050160009054906101000a900461ffff16905087565b600061156982612351565b9050611576838383611d6c565b6115a3601360009054906101000a900473ffffffffffffffffffffffffffffffffffffffff166001610cbb565b6115d0601260009054906101000a900473ffffffffffffffffffffffffffffffffffffffff166001610cbb565b505050565b6000600560008473ffffffffffffffffffffffffffffffffffffffff1673ffffffffffffffffffffffffffffffffffffffff16815260200190815260200160002060008373ffffffffffffffffffffffffffffffffffffffff1673ffffffffffffffffffffffffffffffffffffffff16815260200190815260200160002060009054906101000a900460ff16905092915050565b611671611837565b73ffffffffffffffffffffffffffffffffffffffff1661168f610bff565b73ffffffffffffffffffffffffffffffffffffffff16146116e5576040517f08c379a00000000000000000000000000000000000000000000000000000000081526004016116dc9061367b565b60405180910390fd5b600073ffffffffffffffffffffffffffffffffffffffff168173ffffffffffffffffffffffffffffffffffffffff161415611755576040517f08c379a000000000000000000000000000000000000000000000000000000000815260040161174c906134fb565b60405180910390fd5b61175e81611ca6565b50565b60007f01ffc9a7000000000000000000000000000000000000000000000000000000007bffffffffffffffffffffffffffffffffffffffffffffffffffffffff1916827bffffffffffffffffffffffffffffffffffffffffffffffffffffffff1916149050919050565b60008073ffffffffffffffffffffffffffffffffffffffff166002600084815260200190815260200160002060009054906101000a900473ffffffffffffffffffffffffffffffffffffffff1673ffffffffffffffffffffffffffffffffffffffff1614159050919050565b600033905090565b816004600083815260200190815260200160002060006101000a81548173ffffffffffffffffffffffffffffffffffffffff021916908373ffffffffffffffffffffffffffffffffffffffff160217905550808273ffffffffffffffffffffffffffffffffffffffff166118b283610927565b73ffffffffffffffffffffffffffffffffffffffff167f8c5be1e5ebec7d5bd14f71427d1e84f3dd0314c0f7b2291e5b200ac8c7c3b92560405160405180910390a45050565b6000611903826117cb565b611942576040517f08c379a00000000000000000000000000000000000000000000000000000000081526004016119399061357b565b60405180910390fd5b600061194d83610927565b90508073ffffffffffffffffffffffffffffffffffffffff168473ffffffffffffffffffffffffffffffffffffffff1614806119bc57508373ffffffffffffffffffffffffffffffffffffffff166119a4846105d4565b73ffffffffffffffffffffffffffffffffffffffff16145b806119cd57506119cc81856115d5565b5b91505092915050565b6119df826117cb565b611a1e576040517f08c379a0000000000000000000000000000000000000000000000000000000008152600401611a15906135fb565b60405180910390fd5b80600660008481526020019081526020016000209080519060200190611a4592919061299c565b505050565b8273ffffffffffffffffffffffffffffffffffffffff16611a6a82610927565b73ffffffffffffffffffffffffffffffffffffffff1614611ac0576040517f08c379a0000000000000000000000000000000000000000000000000000000008152600401611ab79061369b565b60405180910390fd5b600073ffffffffffffffffffffffffffffffffffffffff168273ffffffffffffffffffffffffffffffffffffffff161415611b30576040517f08c379a0000000000000000000000000000000000000000000000000000000008152600401611b279061353b565b60405180910390fd5b611b3b838383612396565b611b4660008261183f565b6001600360008573ffffffffffffffffffffffffffffffffffffffff1673ffffffffffffffffffffffffffffffffffffffff1681526020019081526020016000206000828254611b969190613950565b925050819055506001600360008473ffffffffffffffffffffffffffffffffffffffff1673ffffffffffffffffffffffffffffffffffffffff1681526020019081526020016000206000828254611bed919061388b565b92505081905550816002600083815260200190815260200160002060006101000a81548173ffffffffffffffffffffffffffffffffffffffff021916908373ffffffffffffffffffffffffffffffffffffffff160217905550808273ffffffffffffffffffffffffffffffffffffffff168473ffffffffffffffffffffffffffffffffffffffff167fddf252ad1be2c89b69c2b068fc378daa952ba7f163c4a11628f55a4df523b3ef60405160405180910390a4505050565b6000600e60009054906101000a900473ffffffffffffffffffffffffffffffffffffffff16905081600e60006101000a81548173ffffffffffffffffffffffffffffffffffffffff021916908373ffffffffffffffffffffffffffffffffffffffff1602179055508173ffffffffffffffffffffffffffffffffffffffff168173ffffffffffffffffffffffffffffffffffffffff167f8be0079c531659141344cd1fd0a4f28419497f9722a3daafe3b4186f6b6457e060405160405180910390a35050565b611d76601161239b565b6000611d8260116123b1565b9050611d8e33826123bf565b611d9881856119d6565b6000600383611da79190613b52565b6003811115611ddf577f4e487b7100000000000000000000000000000000000000000000000000000000600052602160045260246000fd5b90506000611e28826040518060600160405280600067ffffffffffffffff168152602001600067ffffffffffffffff168152602001600067ffffffffffffffff16815250610e3c565b90506000600485611e399190613b52565b6003811115611e71577f4e487b7100000000000000000000000000000000000000000000000000000000600052602160045260246000fd5b90506000600486611e829190613b52565b6003811115611eba577f4e487b7100000000000000000000000000000000000000000000000000000000600052602160045260246000fd5b90506040518060800160405280856003811115611f00577f4e487b7100000000000000000000000000000000000000000000000000000000600052602160045260246000fd5b8152602001836003811115611f3e577f4e487b7100000000000000000000000000000000000000000000000000000000600052602160045260246000fd5b8152602001826003811115611f7c577f4e487b7100000000000000000000000000000000000000000000000000000000600052602160045260246000fd5b815260200188815250600f600087815260200190815260200160002060008201518160000160006101000a81548160ff02191690836003811115611fe9577f4e487b7100000000000000000000000000000000000000000000000000000000600052602160045260246000fd5b021790555060208201518160000160016101000a81548160ff0219169083600381111561203f577f4e487b7100000000000000000000000000000000000000000000000000000000600052602160045260246000fd5b021790555060408201518160000160026101000a81548160ff02191690836003811115612095577f4e487b7100000000000000000000000000000000000000000000000000000000600052602160045260246000fd5b021790555060608201518160010190805190602001906120b692919061299c565b509050506040518060e001604052806064815260200160008152602001846000015167ffffffffffffffff168152602001846020015167ffffffffffffffff168152602001846040015167ffffffffffffffff16815260200160405180604001604052806000815260200160008152508152602001600061ffff1681525060106000878152602001908152602001600020600082015181600001556020820151816001015560408201518160020160006101000a81548167ffffffffffffffff021916908367ffffffffffffffff16021790555060608201518160020160086101000a81548167ffffffffffffffff021916908367ffffffffffffffff16021790555060808201518160020160106101000a81548167ffffffffffffffff021916908367ffffffffffffffff16021790555060a0820151816003016000820151816000015560208201518160010155505060c08201518160050160006101000a81548161ffff021916908361ffff1602179055509050505050505050505050565b612242848484611a4a565b61224e848484846123dd565b61228d576040517f08c379a0000000000000000000000000000000000000000000000000000000008152600401612284906134db565b60405180910390fd5b50505050565b606060405180602001604052806000815250905090565b60606122b5826117cb565b6122f4576040517f08c379a00000000000000000000000000000000000000000000000000000000081526004016122eb906136bb565b60405180910390fd5b60006122fe612293565b9050600081511161231e5760405180602001604052806000815250612349565b8061232884612574565b6040516020016123399291906133c7565b6040516020818303038152906040525b915050919050565b6000808260405160200161236591906133b0565b6040516020818303038152906040528051906020012060001c90506009548161238e9190613b52565b915050919050565b505050565b6001816000016000828254019250508190555050565b600081600001549050919050565b6123d9828260405180602001604052806000815250612721565b5050565b60006123fe8473ffffffffffffffffffffffffffffffffffffffff1661277c565b15612567578373ffffffffffffffffffffffffffffffffffffffff1663150b7a02612427611837565b8786866040518563ffffffff1660e01b81526004016124499493929190613406565b602060405180830381600087803b15801561246357600080fd5b505af192505050801561249457506040513d601f19601f820116820180604052508101906124919190612dd2565b60015b612517573d80600081146124c4576040519150601f19603f3d011682016040523d82523d6000602084013e6124c9565b606091505b5060008151141561250f576040517f08c379a0000000000000000000000000000000000000000000000000000000008152600401612506906134db565b60405180910390fd5b805181602001fd5b63150b7a0260e01b7bffffffffffffffffffffffffffffffffffffffffffffffffffffffff1916817bffffffffffffffffffffffffffffffffffffffffffffffffffffffff19161491505061256c565b600190505b949350505050565b606060008214156125bc576040518060400160405280600181526020017f3000000000000000000000000000000000000000000000000000000000000000815250905061271c565b600082905060005b600082146125ee5780806125d790613b09565b915050600a826125e7919061391f565b91506125c4565b60008167ffffffffffffffff811115612630577f4e487b7100000000000000000000000000000000000000000000000000000000600052604160045260246000fd5b6040519080825280601f01601f1916602001820160405280156126625781602001600182028036833780820191505090505b5090505b600085146127155760018261267b9190613950565b9150600a8561268a9190613b52565b6030612696919061388b565b60f81b8183815181106126d2577f4e487b7100000000000000000000000000000000000000000000000000000000600052603260045260246000fd5b60200101907effffffffffffffffffffffffffffffffffffffffffffffffffffffffffffff1916908160001a905350600a8561270e919061391f565b9450612666565b8093505050505b919050565b61272b838361278f565b61273860008484846123dd565b612777576040517f08c379a000000000000000000000000000000000000000000000000000000000815260040161276e906134db565b60405180910390fd5b505050565b600080823b905060008111915050919050565b600073ffffffffffffffffffffffffffffffffffffffff168273ffffffffffffffffffffffffffffffffffffffff1614156127ff576040517f08c379a00000000000000000000000000000000000000000000000000000000081526004016127f69061361b565b60405180910390fd5b612808816117cb565b15612848576040517f08c379a000000000000000000000000000000000000000000000000000000000815260040161283f9061351b565b60405180910390fd5b61285460008383612396565b6001600360008473ffffffffffffffffffffffffffffffffffffffff1673ffffffffffffffffffffffffffffffffffffffff16815260200190815260200160002060008282546128a4919061388b565b92505081905550816002600083815260200190815260200160002060006101000a81548173ffffffffffffffffffffffffffffffffffffffff021916908373ffffffffffffffffffffffffffffffffffffffff160217905550808273ffffffffffffffffffffffffffffffffffffffff16600073ffffffffffffffffffffffffffffffffffffffff167fddf252ad1be2c89b69c2b068fc378daa952ba7f163c4a11628f55a4df523b3ef60405160405180910390a45050565b6040518060600160405280600067ffffffffffffffff168152602001600067ffffffffffffffff168152602001600067ffffffffffffffff1681525090565b8280546129a890613aa6565b90600052602060002090601f0160209004810192826129ca5760008555612a11565b82601f106129e357805160ff1916838001178555612a11565b82800160010185558215612a11579182015b82811115612a105782518255916020019190600101906129f5565b5b509050612a1e9190612a22565b5090565b5b80821115612a3b576000816000905550600101612a23565b5090565b6000612a52612a4d846137e6565b6137c1565b905082815260208101848484011115612a6a57600080fd5b612a75848285613a64565b509392505050565b6000612a90612a8b84613817565b6137c1565b905082815260208101848484011115612aa857600080fd5b612ab3848285613a64565b509392505050565b600081359050612aca8161419d565b92915050565b600081359050612adf816141b4565b92915050565b600081359050612af4816141cb565b92915050565b600081519050612b09816141cb565b92915050565b600082601f830112612b2057600080fd5b8135612b30848260208601612a3f565b91505092915050565b600081359050612b48816141e2565b92915050565b600082601f830112612b5f57600080fd5b8135612b6f848260208601612a7d565b91505092915050565b600060608284031215612b8a57600080fd5b612b9460606137c1565b90506000612ba484828501612bed565b6000830152506020612bb884828501612bed565b6020830152506040612bcc84828501612bed565b60408301525092915050565b600081359050612be7816141f2565b92915050565b600081359050612bfc81614209565b92915050565b600060208284031215612c1457600080fd5b6000612c2284828501612abb565b91505092915050565b60008060408385031215612c3e57600080fd5b6000612c4c85828601612abb565b9250506020612c5d85828601612abb565b9150509250929050565b600080600060608486031215612c7c57600080fd5b6000612c8a86828701612abb565b9350506020612c9b86828701612abb565b9250506040612cac86828701612bd8565b9150509250925092565b60008060008060808587031215612ccc57600080fd5b6000612cda87828801612abb565b9450506020612ceb87828801612abb565b9350506040612cfc87828801612bd8565b925050606085013567ffffffffffffffff811115612d1957600080fd5b612d2587828801612b0f565b91505092959194509250565b60008060408385031215612d4457600080fd5b6000612d5285828601612abb565b9250506020612d6385828601612ad0565b9150509250929050565b60008060408385031215612d8057600080fd5b6000612d8e85828601612abb565b9250506020612d9f85828601612bd8565b9150509250929050565b600060208284031215612dbb57600080fd5b6000612dc984828501612ae5565b91505092915050565b600060208284031215612de457600080fd5b6000612df284828501612afa565b91505092915050565b60008060808385031215612e0e57600080fd5b6000612e1c85828601612b39565b9250506020612e2d85828601612b78565b9150509250929050565b60008060408385031215612e4a57600080fd5b600083013567ffffffffffffffff811115612e6457600080fd5b612e7085828601612b4e565b925050602083013567ffffffffffffffff811115612e8d57600080fd5b612e9985828601612b4e565b9150509250929050565b600080600060608486031215612eb857600080fd5b600084013567ffffffffffffffff811115612ed257600080fd5b612ede86828701612b4e565b935050602084013567ffffffffffffffff811115612efb57600080fd5b612f0786828701612b4e565b9250506040612f1886828701612bd8565b9150509250925092565b600060208284031215612f3457600080fd5b6000612f4284828501612bd8565b91505092915050565b60008060408385031215612f5e57600080fd5b6000612f6c85828601612bd8565b925050602083013567ffffffffffffffff811115612f8957600080fd5b612f9585828601612b4e565b9150509250929050565b612fa881613984565b82525050565b612fb781613996565b82525050565b6000612fc882613848565b612fd2818561385e565b9350612fe2818560208601613a73565b612feb81613c6e565b840191505092915050565b612fff81613a40565b82525050565b61300e81613a52565b82525050565b600061301f82613853565b613029818561386f565b9350613039818560208601613a73565b61304281613c6e565b840191505092915050565b600061305882613853565b6130628185613880565b9350613072818560208601613a73565b80840191505092915050565b600061308b60328361386f565b915061309682613c7f565b604082019050919050565b60006130ae60268361386f565b91506130b982613cce565b604082019050919050565b60006130d1601c8361386f565b91506130dc82613d1d565b602082019050919050565b60006130f460248361386f565b91506130ff82613d46565b604082019050919050565b600061311760198361386f565b915061312282613d95565b602082019050919050565b600061313a602c8361386f565b915061314582613dbe565b604082019050919050565b600061315d60388361386f565b915061316882613e0d565b604082019050919050565b6000613180602a8361386f565b915061318b82613e5c565b604082019050919050565b60006131a360298361386f565b91506131ae82613eab565b604082019050919050565b60006131c6602e8361386f565b91506131d182613efa565b604082019050919050565b60006131e960208361386f565b91506131f482613f49565b602082019050919050565b600061320c60318361386f565b915061321782613f72565b604082019050919050565b600061322f602c8361386f565b915061323a82613fc1565b604082019050919050565b600061325260208361386f565b915061325d82614010565b602082019050919050565b600061327560298361386f565b915061328082614039565b604082019050919050565b6000613298602f8361386f565b91506132a382614088565b604082019050919050565b60006132bb60218361386f565b91506132c6826140d7565b604082019050919050565b60006132de60318361386f565b91506132e982614126565b604082019050919050565b60608201600082015161330a6000850182613392565b50602082015161331d6020850182613392565b5060408201516133306040850182613392565b50505050565b60408201600082015161334c6000850182613374565b50602082015161335f6020850182613374565b50505050565b61336e816139f4565b82525050565b61337d81613a22565b82525050565b61338c81613a22565b82525050565b61339b81613a2c565b82525050565b6133aa81613a2c565b82525050565b60006133bc828461304d565b915081905092915050565b60006133d3828561304d565b91506133df828461304d565b91508190509392505050565b60006020820190506134006000830184612f9f565b92915050565b600060808201905061341b6000830187612f9f565b6134286020830186612f9f565b6134356040830185613383565b81810360608301526134478184612fbd565b905095945050505050565b60006020820190506134676000830184612fae565b92915050565b60006080820190506134826000830187612ff6565b61348f6020830186613005565b61349c6040830185613005565b81810360608301526134ae8184613014565b905095945050505050565b600060208201905081810360008301526134d38184613014565b905092915050565b600060208201905081810360008301526134f48161307e565b9050919050565b60006020820190508181036000830152613514816130a1565b9050919050565b60006020820190508181036000830152613534816130c4565b9050919050565b60006020820190508181036000830152613554816130e7565b9050919050565b600060208201905081810360008301526135748161310a565b9050919050565b600060208201905081810360008301526135948161312d565b9050919050565b600060208201905081810360008301526135b481613150565b9050919050565b600060208201905081810360008301526135d481613173565b9050919050565b600060208201905081810360008301526135f481613196565b9050919050565b60006020820190508181036000830152613614816131b9565b9050919050565b60006020820190508181036000830152613634816131dc565b9050919050565b60006020820190508181036000830152613654816131ff565b9050919050565b6000602082019050818103600083015261367481613222565b9050919050565b6000602082019050818103600083015261369481613245565b9050919050565b600060208201905081810360008301526136b481613268565b9050919050565b600060208201905081810360008301526136d48161328b565b9050919050565b600060208201905081810360008301526136f4816132ae565b9050919050565b60006020820190508181036000830152613714816132d1565b9050919050565b600060608201905061373060008301846132f4565b92915050565b600060208201905061374b6000830184613383565b92915050565b600061010082019050613767600083018a613383565b6137746020830189613383565b61378160408301886133a1565b61378e60608301876133a1565b61379b60808301866133a1565b6137a860a0830185613336565b6137b560e0830184613365565b98975050505050505050565b60006137cb6137dc565b90506137d78282613ad8565b919050565b6000604051905090565b600067ffffffffffffffff82111561380157613800613c3f565b5b61380a82613c6e565b9050602081019050919050565b600067ffffffffffffffff82111561383257613831613c3f565b5b61383b82613c6e565b9050602081019050919050565b600081519050919050565b600081519050919050565b600082825260208201905092915050565b600082825260208201905092915050565b600081905092915050565b600061389682613a22565b91506138a183613a22565b9250827fffffffffffffffffffffffffffffffffffffffffffffffffffffffffffffffff038211156138d6576138d5613b83565b5b828201905092915050565b60006138ec82613a2c565b91506138f783613a2c565b92508267ffffffffffffffff0382111561391457613913613b83565b5b828201905092915050565b600061392a82613a22565b915061393583613a22565b92508261394557613944613bb2565b5b828204905092915050565b600061395b82613a22565b915061396683613a22565b92508282101561397957613978613b83565b5b828203905092915050565b600061398f82613a02565b9050919050565b60008115159050919050565b60007fffffffff0000000000000000000000000000000000000000000000000000000082169050919050565b60008190506139dc82614175565b919050565b60008190506139ef82614189565b919050565b600061ffff82169050919050565b600073ffffffffffffffffffffffffffffffffffffffff82169050919050565b6000819050919050565b600067ffffffffffffffff82169050919050565b6000613a4b826139ce565b9050919050565b6000613a5d826139e1565b9050919050565b82818337600083830152505050565b60005b83811015613a91578082015181840152602081019050613a76565b83811115613aa0576000848401525b50505050565b60006002820490506001821680613abe57607f821691505b60208210811415613ad257613ad1613c10565b5b50919050565b613ae182613c6e565b810181811067ffffffffffffffff82111715613b0057613aff613c3f565b5b80604052505050565b6000613b1482613a22565b91507fffffffffffffffffffffffffffffffffffffffffffffffffffffffffffffffff821415613b4757613b46613b83565b5b600182019050919050565b6000613b5d82613a22565b9150613b6883613a22565b925082613b7857613b77613bb2565b5b828206905092915050565b7f4e487b7100000000000000000000000000000000000000000000000000000000600052601160045260246000fd5b7f4e487b7100000000000000000000000000000000000000000000000000000000600052601260045260246000fd5b7f4e487b7100000000000000000000000000000000000000000000000000000000600052602160045260246000fd5b7f4e487b7100000000000000000000000000000000000000000000000000000000600052602260045260246000fd5b7f4e487b7100000000000000000000000000000000000000000000000000000000600052604160045260246000fd5b6000601f19601f8301169050919050565b7f4552433732313a207472616e7366657220746f206e6f6e20455243373231526560008201527f63656976657220696d706c656d656e7465720000000000000000000000000000602082015250565b7f4f776e61626c653a206e6577206f776e657220697320746865207a65726f206160008201527f6464726573730000000000000000000000000000000000000000000000000000602082015250565b7f4552433732313a20746f6b656e20616c7265616479206d696e74656400000000600082015250565b7f4552433732313a207472616e7366657220746f20746865207a65726f2061646460008201527f7265737300000000000000000000000000000000000000000000000000000000602082015250565b7f4552433732313a20617070726f766520746f2063616c6c657200000000000000600082015250565b7f4552433732313a206f70657261746f7220717565727920666f72206e6f6e657860008201527f697374656e7420746f6b656e0000000000000000000000000000000000000000602082015250565b7f4552433732313a20617070726f76652063616c6c6572206973206e6f74206f7760008201527f6e6572206e6f7220617070726f76656420666f7220616c6c0000000000000000602082015250565b7f4552433732313a2062616c616e636520717565727920666f7220746865207a6560008201527f726f206164647265737300000000000000000000000000000000000000000000602082015250565b7f4552433732313a206f776e657220717565727920666f72206e6f6e657869737460008201527f656e7420746f6b656e0000000000000000000000000000000000000000000000602082015250565b7f45524337323155524953746f726167653a2055524920736574206f66206e6f6e60008201527f6578697374656e7420746f6b656e000000000000000000000000000000000000602082015250565b7f4552433732313a206d696e7420746f20746865207a65726f2061646472657373600082015250565b7f45524337323155524953746f726167653a2055524920717565727920666f722060008201527f6e6f6e6578697374656e7420746f6b656e000000000000000000000000000000602082015250565b7f4552433732313a20617070726f76656420717565727920666f72206e6f6e657860008201527f697374656e7420746f6b656e0000000000000000000000000000000000000000602082015250565b7f4f776e61626c653a2063616c6c6572206973206e6f7420746865206f776e6572600082015250565b7f4552433732313a207472616e73666572206f6620746f6b656e2074686174206960008201527f73206e6f74206f776e0000000000000000000000000000000000000000000000602082015250565b7f4552433732314d657461646174613a2055524920717565727920666f72206e6f60008201527f6e6578697374656e7420746f6b656e0000000000000000000000000000000000602082015250565b7f4552433732313a20617070726f76616c20746f2063757272656e74206f776e6560008201527f7200000000000000000000000000000000000000000000000000000000000000602082015250565b7f4552433732313a207472616e736665722063616c6c6572206973206e6f74206f60008201527f776e6572206e6f7220617070726f766564000000000000000000000000000000602082015250565b6004811061418657614185613be1565b5b50565b6004811061419a57614199613be1565b5b50565b6141a681613984565b81146141b157600080fd5b50565b6141bd81613996565b81146141c857600080fd5b50565b6141d4816139a2565b81146141df57600080fd5b50565b600481106141ef57600080fd5b50565b6141fb81613a22565b811461420657600080fd5b50565b61421281613a2c565b811461421d57600080fd5b5056fea26469706673582212207e7b15dc64c882de589abf793913a0e01e5beba1225b47ef2b36ef5b8a32c14e64736f6c63430008040033",
  "linkReferences": {},
  "deployedLinkReferences": {}
}