{
  "_format": "hh-sol-artifact-1",
  "contractName": "BendingNFTMarket",
  "sourceName": "contracts/BendingNFTMarket.sol",
  "abi": [
    {
      "inputs": [],
      "stateMutability": "nonpayable",
      "type": "constructor"
    },
    {
      "anonymous": false,
      "inputs": [
        {
          "indexed": true,
          "internalType": "uint256",
          "name": "itemId",
          "type": "uint256"
        },
        {
          "indexed": true,
          "internalType": "address",
          "name": "ntfContract",
          "type": "address"
        },
        {
          "indexed": true,
          "internalType": "uint256",
          "name": "tokenId",
          "type": "uint256"
        },
        {
          "indexed": false,
          "internalType": "address payable",
          "name": "seller",
          "type": "address"
        },
        {
          "indexed": false,
          "internalType": "address payable",
          "name": "owner",
          "type": "address"
        },
        {
          "indexed": false,
          "internalType": "uint256",
          "name": "price",
          "type": "uint256"
        },
        {
          "indexed": false,
          "internalType": "uint256",
          "name": "lastPrice",
          "type": "uint256"
        },
        {
          "indexed": false,
          "internalType": "bool",
          "name": "sold",
          "type": "bool"
        }
      ],
      "name": "MarketItemCreated",
      "type": "event"
    },
    {
      "anonymous": false,
      "inputs": [
        {
          "indexed": true,
          "internalType": "address",
          "name": "previousOwner",
          "type": "address"
        },
        {
          "indexed": true,
          "internalType": "address",
          "name": "newOwner",
          "type": "address"
        }
      ],
      "name": "OwnershipTransferred",
      "type": "event"
    },
    {
      "inputs": [
        {
          "internalType": "address",
          "name": "_nftContract",
          "type": "address"
        },
        {
          "internalType": "uint256",
          "name": "_tokenId",
          "type": "uint256"
        },
        {
          "internalType": "uint256",
          "name": "_price",
          "type": "uint256"
        }
      ],
      "name": "createMarketItem",
      "outputs": [],
      "stateMutability": "payable",
      "type": "function"
    },
    {
      "inputs": [
        {
          "internalType": "address",
          "name": "_nftContract",
          "type": "address"
        },
        {
          "internalType": "uint256",
          "name": "_itemId",
          "type": "uint256"
        }
      ],
      "name": "createMarketSale",
      "outputs": [],
      "stateMutability": "payable",
      "type": "function"
    },
    {
      "inputs": [],
      "name": "getListingPrice",
      "outputs": [
        {
          "internalType": "uint256",
          "name": "",
          "type": "uint256"
        }
      ],
      "stateMutability": "view",
      "type": "function"
    },
    {
      "inputs": [],
      "name": "getMarketItems",
      "outputs": [
        {
          "components": [
            {
              "internalType": "uint256",
              "name": "itemId",
              "type": "uint256"
            },
            {
              "internalType": "address",
              "name": "ntfContract",
              "type": "address"
            },
            {
              "internalType": "uint256",
              "name": "tokenId",
              "type": "uint256"
            },
            {
              "internalType": "address payable",
              "name": "seller",
              "type": "address"
            },
            {
              "internalType": "address payable",
              "name": "owner",
              "type": "address"
            },
            {
              "internalType": "uint256",
              "name": "price",
              "type": "uint256"
            },
            {
              "internalType": "uint256",
              "name": "lastPrice",
              "type": "uint256"
            },
            {
              "internalType": "bool",
              "name": "sold",
              "type": "bool"
            }
          ],
          "internalType": "struct BendingNFTMarket.MarketItem[]",
          "name": "",
          "type": "tuple[]"
        }
      ],
      "stateMutability": "view",
      "type": "function"
    },
    {
      "inputs": [],
      "name": "getMyCreatedNFTs",
      "outputs": [
        {
          "components": [
            {
              "internalType": "uint256",
              "name": "itemId",
              "type": "uint256"
            },
            {
              "internalType": "address",
              "name": "ntfContract",
              "type": "address"
            },
            {
              "internalType": "uint256",
              "name": "tokenId",
              "type": "uint256"
            },
            {
              "internalType": "address payable",
              "name": "seller",
              "type": "address"
            },
            {
              "internalType": "address payable",
              "name": "owner",
              "type": "address"
            },
            {
              "internalType": "uint256",
              "name": "price",
              "type": "uint256"
            },
            {
              "internalType": "uint256",
              "name": "lastPrice",
              "type": "uint256"
            },
            {
              "internalType": "bool",
              "name": "sold",
              "type": "bool"
            }
          ],
          "internalType": "struct BendingNFTMarket.MarketItem[]",
          "name": "",
          "type": "tuple[]"
        }
      ],
      "stateMutability": "view",
      "type": "function"
    },
    {
      "inputs": [],
      "name": "getMyNFTs",
      "outputs": [
        {
          "components": [
            {
              "internalType": "uint256",
              "name": "itemId",
              "type": "uint256"
            },
            {
              "internalType": "address",
              "name": "ntfContract",
              "type": "address"
            },
            {
              "internalType": "uint256",
              "name": "tokenId",
              "type": "uint256"
            },
            {
              "internalType": "address payable",
              "name": "seller",
              "type": "address"
            },
            {
              "internalType": "address payable",
              "name": "owner",
              "type": "address"
            },
            {
              "internalType": "uint256",
              "name": "price",
              "type": "uint256"
            },
            {
              "internalType": "uint256",
              "name": "lastPrice",
              "type": "uint256"
            },
            {
              "internalType": "bool",
              "name": "sold",
              "type": "bool"
            }
          ],
          "internalType": "struct BendingNFTMarket.MarketItem[]",
          "name": "",
          "type": "tuple[]"
        }
      ],
      "stateMutability": "view",
      "type": "function"
    },
    {
      "inputs": [],
      "name": "owner",
      "outputs": [
        {
          "internalType": "address",
          "name": "",
          "type": "address"
        }
      ],
      "stateMutability": "view",
      "type": "function"
    },
    {
      "inputs": [],
      "name": "renounceOwnership",
      "outputs": [],
      "stateMutability": "nonpayable",
      "type": "function"
    },
    {
      "inputs": [
        {
          "internalType": "address",
          "name": "_nftContract",
          "type": "address"
        },
        {
          "internalType": "uint256",
          "name": "_itemId",
          "type": "uint256"
        },
        {
          "internalType": "uint256",
          "name": "_price",
          "type": "uint256"
        }
      ],
      "name": "resellMarketItem",
      "outputs": [],
      "stateMutability": "payable",
      "type": "function"
    },
    {
      "inputs": [
        {
          "internalType": "uint256",
          "name": "_listingPrice",
          "type": "uint256"
        }
      ],
      "name": "setListingPrice",
      "outputs": [],
      "stateMutability": "nonpayable",
      "type": "function"
    },
    {
      "inputs": [
        {
          "internalType": "address",
          "name": "newOwner",
          "type": "address"
        }
      ],
      "name": "transferOwnership",
      "outputs": [],
      "stateMutability": "nonpayable",
      "type": "function"
    }
  ],
  "bytecode": "0x60806040526658d15e1762800060055534801561001b57600080fd5b5061003861002d61008560201b60201c565b61008d60201b60201c565b6001808190555033600460006101000a81548173ffffffffffffffffffffffffffffffffffffffff021916908373ffffffffffffffffffffffffffffffffffffffff160217905550610151565b600033905090565b60008060009054906101000a900473ffffffffffffffffffffffffffffffffffffffff169050816000806101000a81548173ffffffffffffffffffffffffffffffffffffffff021916908373ffffffffffffffffffffffffffffffffffffffff1602179055508173ffffffffffffffffffffffffffffffffffffffff168173ffffffffffffffffffffffffffffffffffffffff167f8be0079c531659141344cd1fd0a4f28419497f9722a3daafe3b4186f6b6457e060405160405180910390a35050565b61215a80620001616000396000f3fe60806040526004361061009c5760003560e01c8063715018a611610064578063715018a6146101695780637c726b69146101805780638da5cb5b146101a95780638eb6ee4a146101d4578063c23b139e146101f0578063f2fde38b1461020c5761009c565b806312e85585146100a15780631a9d2686146100cc57806329aa3a42146100f757806358eb2df514610122578063629cb2e41461013e575b600080fd5b3480156100ad57600080fd5b506100b6610235565b6040516100c39190611e0d565b60405180910390f35b3480156100d857600080fd5b506100e161023f565b6040516100ee9190611d2b565b60405180910390f35b34801561010357600080fd5b5061010c610559565b6040516101199190611d2b565b60405180910390f35b61013c60048036038101906101379190611949565b61084f565b005b34801561014a57600080fd5b50610153610c1b565b6040516101609190611d2b565b60405180910390f35b34801561017557600080fd5b5061017e610f35565b005b34801561018c57600080fd5b506101a760048036038101906101a29190611998565b610fbd565b005b3480156101b557600080fd5b506101be611043565b6040516101cb9190611c33565b60405180910390f35b6101ee60048036038101906101e99190611949565b61106c565b005b61020a6004803603810190610205919061190d565b611391565b005b34801561021857600080fd5b50610233600480360381019061022e91906118e4565b611649565b005b6000600554905090565b6060600061024d6002611741565b9050600080600660003373ffffffffffffffffffffffffffffffffffffffff1673ffffffffffffffffffffffffffffffffffffffff1681526020019081526020016000205467ffffffffffffffff8111156102d1577f4e487b7100000000000000000000000000000000000000000000000000000000600052604160045260246000fd5b60405190808252806020026020018201604052801561030a57816020015b6102f7611831565b8152602001906001900390816102ef5790505b5090506000600190505b83811161054f573373ffffffffffffffffffffffffffffffffffffffff166008600083815260200190815260200160002060030160009054906101000a900473ffffffffffffffffffffffffffffffffffffffff1673ffffffffffffffffffffffffffffffffffffffff16141561053c576008600082815260200190815260200160002060405180610100016040529081600082015481526020016001820160009054906101000a900473ffffffffffffffffffffffffffffffffffffffff1673ffffffffffffffffffffffffffffffffffffffff1673ffffffffffffffffffffffffffffffffffffffff168152602001600282015481526020016003820160009054906101000a900473ffffffffffffffffffffffffffffffffffffffff1673ffffffffffffffffffffffffffffffffffffffff1673ffffffffffffffffffffffffffffffffffffffff1681526020016004820160009054906101000a900473ffffffffffffffffffffffffffffffffffffffff1673ffffffffffffffffffffffffffffffffffffffff1673ffffffffffffffffffffffffffffffffffffffff16815260200160058201548152602001600682015481526020016007820160009054906101000a900460ff161515151581525050828481518110610522577f4e487b7100000000000000000000000000000000000000000000000000000000600052603260045260246000fd5b6020026020010181905250828061053890611f3c565b9350505b808061054790611f3c565b915050610314565b5080935050505090565b606060006105676002611741565b905060006105756003611741565b826105809190611e72565b90506000808267ffffffffffffffff8111156105c5577f4e487b7100000000000000000000000000000000000000000000000000000000600052604160045260246000fd5b6040519080825280602002602001820160405280156105fe57816020015b6105eb611831565b8152602001906001900390816105e35790505b5090506000600190505b84811161084457600073ffffffffffffffffffffffffffffffffffffffff166008600083815260200190815260200160002060040160009054906101000a900473ffffffffffffffffffffffffffffffffffffffff1673ffffffffffffffffffffffffffffffffffffffff161415610831576008600082815260200190815260200160002060405180610100016040529081600082015481526020016001820160009054906101000a900473ffffffffffffffffffffffffffffffffffffffff1673ffffffffffffffffffffffffffffffffffffffff1673ffffffffffffffffffffffffffffffffffffffff168152602001600282015481526020016003820160009054906101000a900473ffffffffffffffffffffffffffffffffffffffff1673ffffffffffffffffffffffffffffffffffffffff1673ffffffffffffffffffffffffffffffffffffffff1681526020016004820160009054906101000a900473ffffffffffffffffffffffffffffffffffffffff1673ffffffffffffffffffffffffffffffffffffffff1673ffffffffffffffffffffffffffffffffffffffff16815260200160058201548152602001600682015481526020016007820160009054906101000a900460ff161515151581525050828481518110610817577f4e487b7100000000000000000000000000000000000000000000000000000000600052603260045260246000fd5b6020026020010181905250828061082d90611f3c565b9350505b808061083c90611f3c565b915050610608565b508094505050505090565b60026001541415610895576040517f08c379a000000000000000000000000000000000000000000000000000000000815260040161088c90611dad565b60405180910390fd5b6002600181905550600081116108e0576040517f08c379a00000000000000000000000000000000000000000000000000000000081526004016108d790611dcd565b60405180910390fd5b6005543414610924576040517f08c379a000000000000000000000000000000000000000000000000000000000815260040161091b90611d8d565b60405180910390fd5b61092e600261174f565b600061093a6002611741565b90506040518061010001604052808281526020018573ffffffffffffffffffffffffffffffffffffffff1681526020018481526020013373ffffffffffffffffffffffffffffffffffffffff168152602001600073ffffffffffffffffffffffffffffffffffffffff1681526020018381526020016000815260200160001515815250600860008381526020019081526020016000206000820151816000015560208201518160010160006101000a81548173ffffffffffffffffffffffffffffffffffffffff021916908373ffffffffffffffffffffffffffffffffffffffff1602179055506040820151816002015560608201518160030160006101000a81548173ffffffffffffffffffffffffffffffffffffffff021916908373ffffffffffffffffffffffffffffffffffffffff16021790555060808201518160040160006101000a81548173ffffffffffffffffffffffffffffffffffffffff021916908373ffffffffffffffffffffffffffffffffffffffff16021790555060a0820151816005015560c0820151816006015560e08201518160070160006101000a81548160ff021916908315150217905550905050600660003373ffffffffffffffffffffffffffffffffffffffff1673ffffffffffffffffffffffffffffffffffffffff1681526020019081526020016000206000815480929190610b4090611f3c565b91905055508373ffffffffffffffffffffffffffffffffffffffff166323b872dd3330866040518463ffffffff1660e01b8152600401610b8293929190611cf4565b600060405180830381600087803b158015610b9c57600080fd5b505af1158015610bb0573d6000803e3d6000fd5b50505050828473ffffffffffffffffffffffffffffffffffffffff16827fd0bb1eaea8ab6cd0c288f209757734c5e280d8f4e05f93b1db82da8db727875833600087600080604051610c06959493929190611c4e565b60405180910390a45060018081905550505050565b60606000610c296002611741565b9050600080600760003373ffffffffffffffffffffffffffffffffffffffff1673ffffffffffffffffffffffffffffffffffffffff1681526020019081526020016000205467ffffffffffffffff811115610cad577f4e487b7100000000000000000000000000000000000000000000000000000000600052604160045260246000fd5b604051908082528060200260200182016040528015610ce657816020015b610cd3611831565b815260200190600190039081610ccb5790505b5090506000600190505b838111610f2b573373ffffffffffffffffffffffffffffffffffffffff166008600083815260200190815260200160002060040160009054906101000a900473ffffffffffffffffffffffffffffffffffffffff1673ffffffffffffffffffffffffffffffffffffffff161415610f18576008600082815260200190815260200160002060405180610100016040529081600082015481526020016001820160009054906101000a900473ffffffffffffffffffffffffffffffffffffffff1673ffffffffffffffffffffffffffffffffffffffff1673ffffffffffffffffffffffffffffffffffffffff168152602001600282015481526020016003820160009054906101000a900473ffffffffffffffffffffffffffffffffffffffff1673ffffffffffffffffffffffffffffffffffffffff1673ffffffffffffffffffffffffffffffffffffffff1681526020016004820160009054906101000a900473ffffffffffffffffffffffffffffffffffffffff1673ffffffffffffffffffffffffffffffffffffffff1673ffffffffffffffffffffffffffffffffffffffff16815260200160058201548152602001600682015481526020016007820160009054906101000a900460ff161515151581525050828481518110610efe577f4e487b7100000000000000000000000000000000000000000000000000000000600052603260045260246000fd5b60200260200101819052508280610f1490611f3c565b9350505b8080610f2390611f3c565b915050610cf0565b5080935050505090565b610f3d611765565b73ffffffffffffffffffffffffffffffffffffffff16610f5b611043565b73ffffffffffffffffffffffffffffffffffffffff1614610fb1576040517f08c379a0000000000000000000000000000000000000000000000000000000008152600401610fa890611d6d565b60405180910390fd5b610fbb600061176d565b565b610fc5611765565b73ffffffffffffffffffffffffffffffffffffffff16610fe3611043565b73ffffffffffffffffffffffffffffffffffffffff1614611039576040517f08c379a000000000000000000000000000000000000000000000000000000000815260040161103090611d6d565b60405180910390fd5b8060058190555050565b60008060009054906101000a900473ffffffffffffffffffffffffffffffffffffffff16905090565b600260015414156110b2576040517f08c379a00000000000000000000000000000000000000000000000000000000081526004016110a990611dad565b60405180910390fd5b6002600181905550600081116110fd576040517f08c379a00000000000000000000000000000000000000000000000000000000081526004016110f490611dcd565b60405180910390fd5b6005543414611141576040517f08c379a000000000000000000000000000000000000000000000000000000000815260040161113890611d8d565b60405180910390fd5b600060086000848152602001908152602001600020905060008160070160006101000a81548160ff021916908315150217905550818160050181905550338160030160006101000a81548173ffffffffffffffffffffffffffffffffffffffff021916908373ffffffffffffffffffffffffffffffffffffffff16021790555060008160040160006101000a81548173ffffffffffffffffffffffffffffffffffffffff021916908373ffffffffffffffffffffffffffffffffffffffff160217905550600660003373ffffffffffffffffffffffffffffffffffffffff1673ffffffffffffffffffffffffffffffffffffffff168152602001908152602001600020600081548092919061125590611f3c565b9190505550600760003373ffffffffffffffffffffffffffffffffffffffff1673ffffffffffffffffffffffffffffffffffffffff16815260200190815260200160002060008154809291906112aa90611f12565b91905055508373ffffffffffffffffffffffffffffffffffffffff166323b872dd333084600201546040518463ffffffff1660e01b81526004016112f093929190611cf4565b600060405180830381600087803b15801561130a57600080fd5b505af115801561131e573d6000803e3d6000fd5b5050505080600201548473ffffffffffffffffffffffffffffffffffffffff16847fd0bb1eaea8ab6cd0c288f209757734c5e280d8f4e05f93b1db82da8db7278758336000878760050154600060405161137c959493929190611ca1565b60405180910390a45060018081905550505050565b600060086000838152602001908152602001600020600501549050600060086000848152602001908152602001600020600201549050348214611409576040517f08c379a000000000000000000000000000000000000000000000000000000000815260040161140090611ded565b60405180910390fd5b6008600084815260200190815260200160002060030160009054906101000a900473ffffffffffffffffffffffffffffffffffffffff1673ffffffffffffffffffffffffffffffffffffffff166108fc839081150290604051600060405180830381858888f19350505050158015611485573d6000803e3d6000fd5b508373ffffffffffffffffffffffffffffffffffffffff166323b872dd3033846040518463ffffffff1660e01b81526004016114c393929190611cf4565b600060405180830381600087803b1580156114dd57600080fd5b505af11580156114f1573d6000803e3d6000fd5b50505050336008600085815260200190815260200160002060040160006101000a81548173ffffffffffffffffffffffffffffffffffffffff021916908373ffffffffffffffffffffffffffffffffffffffff16021790555060016008600085815260200190815260200160002060070160006101000a81548160ff021916908315150217905550611583600361174f565b600460009054906101000a900473ffffffffffffffffffffffffffffffffffffffff1673ffffffffffffffffffffffffffffffffffffffff166108fc6005549081150290604051600060405180830381858888f193505050501580156115ed573d6000803e3d6000fd5b50600760003373ffffffffffffffffffffffffffffffffffffffff1673ffffffffffffffffffffffffffffffffffffffff168152602001908152602001600020600081548092919061163e90611f3c565b919050555050505050565b611651611765565b73ffffffffffffffffffffffffffffffffffffffff1661166f611043565b73ffffffffffffffffffffffffffffffffffffffff16146116c5576040517f08c379a00000000000000000000000000000000000000000000000000000000081526004016116bc90611d6d565b60405180910390fd5b600073ffffffffffffffffffffffffffffffffffffffff168173ffffffffffffffffffffffffffffffffffffffff161415611735576040517f08c379a000000000000000000000000000000000000000000000000000000000815260040161172c90611d4d565b60405180910390fd5b61173e8161176d565b50565b600081600001549050919050565b6001816000016000828254019250508190555050565b600033905090565b60008060009054906101000a900473ffffffffffffffffffffffffffffffffffffffff169050816000806101000a81548173ffffffffffffffffffffffffffffffffffffffff021916908373ffffffffffffffffffffffffffffffffffffffff1602179055508173ffffffffffffffffffffffffffffffffffffffff168173ffffffffffffffffffffffffffffffffffffffff167f8be0079c531659141344cd1fd0a4f28419497f9722a3daafe3b4186f6b6457e060405160405180910390a35050565b60405180610100016040528060008152602001600073ffffffffffffffffffffffffffffffffffffffff16815260200160008152602001600073ffffffffffffffffffffffffffffffffffffffff168152602001600073ffffffffffffffffffffffffffffffffffffffff16815260200160008152602001600081526020016000151581525090565b6000813590506118c9816120f6565b92915050565b6000813590506118de8161210d565b92915050565b6000602082840312156118f657600080fd5b6000611904848285016118ba565b91505092915050565b6000806040838503121561192057600080fd5b600061192e858286016118ba565b925050602061193f858286016118cf565b9150509250929050565b60008060006060848603121561195e57600080fd5b600061196c868287016118ba565b935050602061197d868287016118cf565b925050604061198e868287016118cf565b9150509250925092565b6000602082840312156119aa57600080fd5b60006119b8848285016118cf565b91505092915050565b60006119cd8383611b73565b6101008301905092915050565b6119e381611eb8565b82525050565b6119f281611eb8565b82525050565b611a0181611ea6565b82525050565b611a1081611ea6565b82525050565b6000611a2182611e38565b611a2b8185611e50565b9350611a3683611e28565b8060005b83811015611a67578151611a4e88826119c1565b9750611a5983611e43565b925050600181019050611a3a565b5085935050505092915050565b611a7d81611eca565b82525050565b611a8c81611eca565b82525050565b611a9b81611f00565b82525050565b6000611aae602683611e61565b9150611ab982611fb4565b604082019050919050565b6000611ad1602083611e61565b9150611adc82612003565b602082019050919050565b6000611af4602483611e61565b9150611aff8261202c565b604082019050919050565b6000611b17601f83611e61565b9150611b228261207b565b602082019050919050565b6000611b3a601c83611e61565b9150611b45826120a4565b602082019050919050565b6000611b5d602083611e61565b9150611b68826120cd565b602082019050919050565b61010082016000820151611b8a6000850182611c15565b506020820151611b9d60208501826119f8565b506040820151611bb06040850182611c15565b506060820151611bc360608501826119da565b506080820151611bd660808501826119da565b5060a0820151611be960a0850182611c15565b5060c0820151611bfc60c0850182611c15565b5060e0820151611c0f60e0850182611a74565b50505050565b611c1e81611ef6565b82525050565b611c2d81611ef6565b82525050565b6000602082019050611c486000830184611a07565b92915050565b600060a082019050611c6360008301886119e9565b611c7060208301876119e9565b611c7d6040830186611c24565b611c8a6060830185611a92565b611c976080830184611a83565b9695505050505050565b600060a082019050611cb660008301886119e9565b611cc360208301876119e9565b611cd06040830186611c24565b611cdd6060830185611c24565b611cea6080830184611a83565b9695505050505050565b6000606082019050611d096000830186611a07565b611d166020830185611a07565b611d236040830184611c24565b949350505050565b60006020820190508181036000830152611d458184611a16565b905092915050565b60006020820190508181036000830152611d6681611aa1565b9050919050565b60006020820190508181036000830152611d8681611ac4565b9050919050565b60006020820190508181036000830152611da681611ae7565b9050919050565b60006020820190508181036000830152611dc681611b0a565b9050919050565b60006020820190508181036000830152611de681611b2d565b9050919050565b60006020820190508181036000830152611e0681611b50565b9050919050565b6000602082019050611e226000830184611c24565b92915050565b6000819050602082019050919050565b600081519050919050565b6000602082019050919050565b600082825260208201905092915050565b600082825260208201905092915050565b6000611e7d82611ef6565b9150611e8883611ef6565b925082821015611e9b57611e9a611f85565b5b828203905092915050565b6000611eb182611ed6565b9050919050565b6000611ec382611ed6565b9050919050565b60008115159050919050565b600073ffffffffffffffffffffffffffffffffffffffff82169050919050565b6000819050919050565b6000611f0b82611ef6565b9050919050565b6000611f1d82611ef6565b91506000821415611f3157611f30611f85565b5b600182039050919050565b6000611f4782611ef6565b91507fffffffffffffffffffffffffffffffffffffffffffffffffffffffffffffffff821415611f7a57611f79611f85565b5b600182019050919050565b7f4e487b7100000000000000000000000000000000000000000000000000000000600052601160045260246000fd5b7f4f776e61626c653a206e6577206f776e657220697320746865207a65726f206160008201527f6464726573730000000000000000000000000000000000000000000000000000602082015250565b7f4f776e61626c653a2063616c6c6572206973206e6f7420746865206f776e6572600082015250565b7f5072696365206d75737420626520657175616c20746f206c697374696e67207060008201527f7269636500000000000000000000000000000000000000000000000000000000602082015250565b7f5265656e7472616e637947756172643a207265656e7472616e742063616c6c00600082015250565b7f5072696365206d757374206265206174206c6561737420312077656900000000600082015250565b7f506c65617365207375626d697420746865207265717569726564207072696365600082015250565b6120ff81611ea6565b811461210a57600080fd5b50565b61211681611ef6565b811461212157600080fd5b5056fea2646970667358221220215a7c5bb635041bb0d395a55fca5d10bf49e1252f8c531cb96e84f462eac5c164736f6c63430008040033",
  "linkReferences": {},
  "deployedLinkReferences": {}
}