{
  "_format": "hh-sol-artifact-1",
  "contractName": "MarketViews",
  "sourceName": "src/contracts/Market/MarketViews.sol",
  "abi": [
    {
      "anonymous": false,
      "inputs": [
        {
          "indexed": true,
          "internalType": "uint256",
          "name": "itemId",
          "type": "uint256"
        },
        {
          "indexed": true,
          "internalType": "address",
          "name": "ntfContract",
          "type": "address"
        },
        {
          "indexed": true,
          "internalType": "uint256",
          "name": "tokenId",
          "type": "uint256"
        },
        {
          "indexed": false,
          "internalType": "address payable",
          "name": "seller",
          "type": "address"
        },
        {
          "indexed": false,
          "internalType": "address payable",
          "name": "owner",
          "type": "address"
        },
        {
          "indexed": false,
          "internalType": "uint256",
          "name": "price",
          "type": "uint256"
        },
        {
          "indexed": false,
          "internalType": "uint256",
          "name": "lastPrice",
          "type": "uint256"
        },
        {
          "indexed": false,
          "internalType": "bool",
          "name": "sold",
          "type": "bool"
        }
      ],
      "name": "MarketItemCreated",
      "type": "event"
    },
    {
      "anonymous": false,
      "inputs": [
        {
          "indexed": true,
          "internalType": "address",
          "name": "previousOwner",
          "type": "address"
        },
        {
          "indexed": true,
          "internalType": "address",
          "name": "newOwner",
          "type": "address"
        }
      ],
      "name": "OwnershipTransferred",
      "type": "event"
    },
    {
      "inputs": [
        {
          "internalType": "address",
          "name": "_nftContract",
          "type": "address"
        },
        {
          "internalType": "uint256",
          "name": "_tokenId",
          "type": "uint256"
        },
        {
          "internalType": "uint256",
          "name": "_price",
          "type": "uint256"
        }
      ],
      "name": "createMarketItem",
      "outputs": [],
      "stateMutability": "payable",
      "type": "function"
    },
    {
      "inputs": [
        {
          "internalType": "address",
          "name": "_nftContract",
          "type": "address"
        },
        {
          "internalType": "uint256",
          "name": "_itemId",
          "type": "uint256"
        }
      ],
      "name": "createMarketSale",
      "outputs": [],
      "stateMutability": "payable",
      "type": "function"
    },
    {
      "inputs": [],
      "name": "getCurrentItemsCount",
      "outputs": [
        {
          "internalType": "uint256",
          "name": "",
          "type": "uint256"
        }
      ],
      "stateMutability": "view",
      "type": "function"
    },
    {
      "inputs": [],
      "name": "getCurrentItemsSoldCount",
      "outputs": [
        {
          "internalType": "uint256",
          "name": "",
          "type": "uint256"
        }
      ],
      "stateMutability": "view",
      "type": "function"
    },
    {
      "inputs": [],
      "name": "getListingPrice",
      "outputs": [
        {
          "internalType": "uint256",
          "name": "",
          "type": "uint256"
        }
      ],
      "stateMutability": "view",
      "type": "function"
    },
    {
      "inputs": [
        {
          "internalType": "uint256",
          "name": "_itemId",
          "type": "uint256"
        }
      ],
      "name": "getMarketItem",
      "outputs": [
        {
          "components": [
            {
              "internalType": "uint256",
              "name": "itemId",
              "type": "uint256"
            },
            {
              "internalType": "address",
              "name": "ntfContract",
              "type": "address"
            },
            {
              "internalType": "uint256",
              "name": "tokenId",
              "type": "uint256"
            },
            {
              "internalType": "address payable",
              "name": "seller",
              "type": "address"
            },
            {
              "internalType": "address payable",
              "name": "owner",
              "type": "address"
            },
            {
              "internalType": "uint256",
              "name": "price",
              "type": "uint256"
            },
            {
              "internalType": "uint256",
              "name": "lastPrice",
              "type": "uint256"
            },
            {
              "internalType": "bool",
              "name": "sold",
              "type": "bool"
            }
          ],
          "internalType": "struct MarketBase.MarketItem",
          "name": "",
          "type": "tuple"
        }
      ],
      "stateMutability": "view",
      "type": "function"
    },
    {
      "inputs": [],
      "name": "getMarketItems",
      "outputs": [
        {
          "components": [
            {
              "internalType": "uint256",
              "name": "itemId",
              "type": "uint256"
            },
            {
              "internalType": "address",
              "name": "ntfContract",
              "type": "address"
            },
            {
              "internalType": "uint256",
              "name": "tokenId",
              "type": "uint256"
            },
            {
              "internalType": "address payable",
              "name": "seller",
              "type": "address"
            },
            {
              "internalType": "address payable",
              "name": "owner",
              "type": "address"
            },
            {
              "internalType": "uint256",
              "name": "price",
              "type": "uint256"
            },
            {
              "internalType": "uint256",
              "name": "lastPrice",
              "type": "uint256"
            },
            {
              "internalType": "bool",
              "name": "sold",
              "type": "bool"
            }
          ],
          "internalType": "struct MarketBase.MarketItem[]",
          "name": "",
          "type": "tuple[]"
        }
      ],
      "stateMutability": "view",
      "type": "function"
    },
    {
      "inputs": [],
      "name": "getMyCreatedNFTs",
      "outputs": [
        {
          "components": [
            {
              "internalType": "uint256",
              "name": "itemId",
              "type": "uint256"
            },
            {
              "internalType": "address",
              "name": "ntfContract",
              "type": "address"
            },
            {
              "internalType": "uint256",
              "name": "tokenId",
              "type": "uint256"
            },
            {
              "internalType": "address payable",
              "name": "seller",
              "type": "address"
            },
            {
              "internalType": "address payable",
              "name": "owner",
              "type": "address"
            },
            {
              "internalType": "uint256",
              "name": "price",
              "type": "uint256"
            },
            {
              "internalType": "uint256",
              "name": "lastPrice",
              "type": "uint256"
            },
            {
              "internalType": "bool",
              "name": "sold",
              "type": "bool"
            }
          ],
          "internalType": "struct MarketBase.MarketItem[]",
          "name": "",
          "type": "tuple[]"
        }
      ],
      "stateMutability": "view",
      "type": "function"
    },
    {
      "inputs": [],
      "name": "getMyNFTs",
      "outputs": [
        {
          "components": [
            {
              "internalType": "uint256",
              "name": "itemId",
              "type": "uint256"
            },
            {
              "internalType": "address",
              "name": "ntfContract",
              "type": "address"
            },
            {
              "internalType": "uint256",
              "name": "tokenId",
              "type": "uint256"
            },
            {
              "internalType": "address payable",
              "name": "seller",
              "type": "address"
            },
            {
              "internalType": "address payable",
              "name": "owner",
              "type": "address"
            },
            {
              "internalType": "uint256",
              "name": "price",
              "type": "uint256"
            },
            {
              "internalType": "uint256",
              "name": "lastPrice",
              "type": "uint256"
            },
            {
              "internalType": "bool",
              "name": "sold",
              "type": "bool"
            }
          ],
          "internalType": "struct MarketBase.MarketItem[]",
          "name": "",
          "type": "tuple[]"
        }
      ],
      "stateMutability": "view",
      "type": "function"
    },
    {
      "inputs": [],
      "name": "owner",
      "outputs": [
        {
          "internalType": "address",
          "name": "",
          "type": "address"
        }
      ],
      "stateMutability": "view",
      "type": "function"
    },
    {
      "inputs": [],
      "name": "renounceOwnership",
      "outputs": [],
      "stateMutability": "nonpayable",
      "type": "function"
    },
    {
      "inputs": [
        {
          "internalType": "address",
          "name": "_nftContract",
          "type": "address"
        },
        {
          "internalType": "uint256",
          "name": "_itemId",
          "type": "uint256"
        },
        {
          "internalType": "uint256",
          "name": "_price",
          "type": "uint256"
        }
      ],
      "name": "resellMarketItem",
      "outputs": [],
      "stateMutability": "payable",
      "type": "function"
    },
    {
      "inputs": [
        {
          "internalType": "uint256",
          "name": "_listingPrice",
          "type": "uint256"
        }
      ],
      "name": "setListingPrice",
      "outputs": [],
      "stateMutability": "nonpayable",
      "type": "function"
    },
    {
      "inputs": [
        {
          "internalType": "address",
          "name": "newOwner",
          "type": "address"
        }
      ],
      "name": "transferOwnership",
      "outputs": [],
      "stateMutability": "nonpayable",
      "type": "function"
    }
  ],
  "bytecode": "0x60806040526658d15e176280006006553480156200001c57600080fd5b506200003d620000316200008b60201b60201c565b6200009360201b60201c565b6001808190555033600560006101000a81548173ffffffffffffffffffffffffffffffffffffffff021916908373ffffffffffffffffffffffffffffffffffffffff16021790555062000157565b600033905090565b60008060009054906101000a900473ffffffffffffffffffffffffffffffffffffffff169050816000806101000a81548173ffffffffffffffffffffffffffffffffffffffff021916908373ffffffffffffffffffffffffffffffffffffffff1602179055508173ffffffffffffffffffffffffffffffffffffffff168173ffffffffffffffffffffffffffffffffffffffff167f8be0079c531659141344cd1fd0a4f28419497f9722a3daafe3b4186f6b6457e060405160405180910390a35050565b6125bf80620001676000396000f3fe6080604052600436106100dd5760003560e01c80637c726b691161007f578063c23b139e11610059578063c23b139e1461025c578063c7be7a4914610278578063e0e2bd0d146102b5578063f2fde38b146102e0576100dd565b80637c726b69146101ec5780638da5cb5b146102155780638eb6ee4a14610240576100dd565b806329aa3a42116100bb57806329aa3a421461016357806358eb2df51461018e578063629cb2e4146101aa578063715018a6146101d5576100dd565b806312e85585146100e25780631829c0541461010d5780631a9d268614610138575b600080fd5b3480156100ee57600080fd5b506100f7610309565b6040516101049190612249565b60405180910390f35b34801561011957600080fd5b50610122610313565b60405161012f9190612249565b60405180910390f35b34801561014457600080fd5b5061014d610324565b60405161015a919061212b565b60405180910390f35b34801561016f57600080fd5b5061017861063c565b604051610185919061212b565b60405180910390f35b6101a860048036038101906101a39190611c84565b61092e565b005b3480156101b657600080fd5b506101bf610cfa565b6040516101cc919061212b565b60405180910390f35b3480156101e157600080fd5b506101ea611012565b005b3480156101f857600080fd5b50610213600480360381019061020e9190611cd3565b61109a565b005b34801561022157600080fd5b5061022a611120565b6040516102379190612033565b60405180910390f35b61025a60048036038101906102559190611c84565b611149565b005b61027660048036038101906102719190611c48565b611478565b005b34801561028457600080fd5b5061029f600480360381019061029a9190611cd3565b6117a4565b6040516102ac919061222d565b60405180910390f35b3480156102c157600080fd5b506102ca611917565b6040516102d79190612249565b60405180910390f35b3480156102ec57600080fd5b5061030760048036038101906103029190611c1f565b611928565b005b6000600654905090565b600061031f6003611a20565b905090565b60606000610330611917565b9050600080600760003373ffffffffffffffffffffffffffffffffffffffff1673ffffffffffffffffffffffffffffffffffffffff1681526020019081526020016000205467ffffffffffffffff8111156103b4577f4e487b7100000000000000000000000000000000000000000000000000000000600052604160045260246000fd5b6040519080825280602002602001820160405280156103ed57816020015b6103da611b6c565b8152602001906001900390816103d25790505b5090506000600190505b838111610632573373ffffffffffffffffffffffffffffffffffffffff16600a600083815260200190815260200160002060030160009054906101000a900473ffffffffffffffffffffffffffffffffffffffff1673ffffffffffffffffffffffffffffffffffffffff16141561061f57600a600082815260200190815260200160002060405180610100016040529081600082015481526020016001820160009054906101000a900473ffffffffffffffffffffffffffffffffffffffff1673ffffffffffffffffffffffffffffffffffffffff1673ffffffffffffffffffffffffffffffffffffffff168152602001600282015481526020016003820160009054906101000a900473ffffffffffffffffffffffffffffffffffffffff1673ffffffffffffffffffffffffffffffffffffffff1673ffffffffffffffffffffffffffffffffffffffff1681526020016004820160009054906101000a900473ffffffffffffffffffffffffffffffffffffffff1673ffffffffffffffffffffffffffffffffffffffff1673ffffffffffffffffffffffffffffffffffffffff16815260200160058201548152602001600682015481526020016007820160009054906101000a900460ff161515151581525050828481518110610605577f4e487b7100000000000000000000000000000000000000000000000000000000600052603260045260246000fd5b6020026020010181905250828061061b90612378565b9350505b808061062a90612378565b9150506103f7565b5080935050505090565b60606000610648611917565b90506000610654610313565b8261065f91906122ae565b90506000808267ffffffffffffffff8111156106a4577f4e487b7100000000000000000000000000000000000000000000000000000000600052604160045260246000fd5b6040519080825280602002602001820160405280156106dd57816020015b6106ca611b6c565b8152602001906001900390816106c25790505b5090506000600190505b84811161092357600073ffffffffffffffffffffffffffffffffffffffff16600a600083815260200190815260200160002060040160009054906101000a900473ffffffffffffffffffffffffffffffffffffffff1673ffffffffffffffffffffffffffffffffffffffff16141561091057600a600082815260200190815260200160002060405180610100016040529081600082015481526020016001820160009054906101000a900473ffffffffffffffffffffffffffffffffffffffff1673ffffffffffffffffffffffffffffffffffffffff1673ffffffffffffffffffffffffffffffffffffffff168152602001600282015481526020016003820160009054906101000a900473ffffffffffffffffffffffffffffffffffffffff1673ffffffffffffffffffffffffffffffffffffffff1673ffffffffffffffffffffffffffffffffffffffff1681526020016004820160009054906101000a900473ffffffffffffffffffffffffffffffffffffffff1673ffffffffffffffffffffffffffffffffffffffff1673ffffffffffffffffffffffffffffffffffffffff16815260200160058201548152602001600682015481526020016007820160009054906101000a900460ff1615151515815250508284815181106108f6577f4e487b7100000000000000000000000000000000000000000000000000000000600052603260045260246000fd5b6020026020010181905250828061090c90612378565b9350505b808061091b90612378565b9150506106e7565b508094505050505090565b60026001541415610974576040517f08c379a000000000000000000000000000000000000000000000000000000000815260040161096b906121cd565b60405180910390fd5b6002600181905550600081116109bf576040517f08c379a00000000000000000000000000000000000000000000000000000000081526004016109b6906121ed565b60405180910390fd5b6006543414610a03576040517f08c379a00000000000000000000000000000000000000000000000000000000081526004016109fa906121ad565b60405180910390fd5b610a0d6002611a2e565b6000610a196002611a20565b90506040518061010001604052808281526020018573ffffffffffffffffffffffffffffffffffffffff1681526020018481526020013373ffffffffffffffffffffffffffffffffffffffff168152602001600073ffffffffffffffffffffffffffffffffffffffff1681526020018381526020016000815260200160001515815250600a60008381526020019081526020016000206000820151816000015560208201518160010160006101000a81548173ffffffffffffffffffffffffffffffffffffffff021916908373ffffffffffffffffffffffffffffffffffffffff1602179055506040820151816002015560608201518160030160006101000a81548173ffffffffffffffffffffffffffffffffffffffff021916908373ffffffffffffffffffffffffffffffffffffffff16021790555060808201518160040160006101000a81548173ffffffffffffffffffffffffffffffffffffffff021916908373ffffffffffffffffffffffffffffffffffffffff16021790555060a0820151816005015560c0820151816006015560e08201518160070160006101000a81548160ff021916908315150217905550905050600760003373ffffffffffffffffffffffffffffffffffffffff1673ffffffffffffffffffffffffffffffffffffffff1681526020019081526020016000206000815480929190610c1f90612378565b91905055508373ffffffffffffffffffffffffffffffffffffffff166323b872dd3330866040518463ffffffff1660e01b8152600401610c61939291906120f4565b600060405180830381600087803b158015610c7b57600080fd5b505af1158015610c8f573d6000803e3d6000fd5b50505050828473ffffffffffffffffffffffffffffffffffffffff16827fd0bb1eaea8ab6cd0c288f209757734c5e280d8f4e05f93b1db82da8db727875833600087600080604051610ce595949392919061204e565b60405180910390a45060018081905550505050565b60606000610d06611917565b9050600080600860003373ffffffffffffffffffffffffffffffffffffffff1673ffffffffffffffffffffffffffffffffffffffff1681526020019081526020016000205467ffffffffffffffff811115610d8a577f4e487b7100000000000000000000000000000000000000000000000000000000600052604160045260246000fd5b604051908082528060200260200182016040528015610dc357816020015b610db0611b6c565b815260200190600190039081610da85790505b5090506000600190505b838111611008573373ffffffffffffffffffffffffffffffffffffffff16600a600083815260200190815260200160002060040160009054906101000a900473ffffffffffffffffffffffffffffffffffffffff1673ffffffffffffffffffffffffffffffffffffffff161415610ff557600a600082815260200190815260200160002060405180610100016040529081600082015481526020016001820160009054906101000a900473ffffffffffffffffffffffffffffffffffffffff1673ffffffffffffffffffffffffffffffffffffffff1673ffffffffffffffffffffffffffffffffffffffff168152602001600282015481526020016003820160009054906101000a900473ffffffffffffffffffffffffffffffffffffffff1673ffffffffffffffffffffffffffffffffffffffff1673ffffffffffffffffffffffffffffffffffffffff1681526020016004820160009054906101000a900473ffffffffffffffffffffffffffffffffffffffff1673ffffffffffffffffffffffffffffffffffffffff1673ffffffffffffffffffffffffffffffffffffffff16815260200160058201548152602001600682015481526020016007820160009054906101000a900460ff161515151581525050828481518110610fdb577f4e487b7100000000000000000000000000000000000000000000000000000000600052603260045260246000fd5b60200260200101819052508280610ff190612378565b9350505b808061100090612378565b915050610dcd565b5080935050505090565b61101a611a44565b73ffffffffffffffffffffffffffffffffffffffff16611038611120565b73ffffffffffffffffffffffffffffffffffffffff161461108e576040517f08c379a00000000000000000000000000000000000000000000000000000000081526004016110859061218d565b60405180910390fd5b6110986000611a4c565b565b6110a2611a44565b73ffffffffffffffffffffffffffffffffffffffff166110c0611120565b73ffffffffffffffffffffffffffffffffffffffff1614611116576040517f08c379a000000000000000000000000000000000000000000000000000000000815260040161110d9061218d565b60405180910390fd5b8060068190555050565b60008060009054906101000a900473ffffffffffffffffffffffffffffffffffffffff16905090565b6002600154141561118f576040517f08c379a0000000000000000000000000000000000000000000000000000000008152600401611186906121cd565b60405180910390fd5b6002600181905550600081116111da576040517f08c379a00000000000000000000000000000000000000000000000000000000081526004016111d1906121ed565b60405180910390fd5b600654341461121e576040517f08c379a0000000000000000000000000000000000000000000000000000000008152600401611215906121ad565b60405180910390fd5b6000600a6000848152602001908152602001600020905060008160070160006101000a81548160ff021916908315150217905550818160050181905550338160030160006101000a81548173ffffffffffffffffffffffffffffffffffffffff021916908373ffffffffffffffffffffffffffffffffffffffff16021790555060008160040160006101000a81548173ffffffffffffffffffffffffffffffffffffffff021916908373ffffffffffffffffffffffffffffffffffffffff160217905550600760003373ffffffffffffffffffffffffffffffffffffffff1673ffffffffffffffffffffffffffffffffffffffff168152602001908152602001600020600081548092919061133290612378565b9190505550600860003373ffffffffffffffffffffffffffffffffffffffff1673ffffffffffffffffffffffffffffffffffffffff16815260200190815260200160002060008154809291906113879061234e565b91905055506113966003611b10565b8373ffffffffffffffffffffffffffffffffffffffff166323b872dd333084600201546040518463ffffffff1660e01b81526004016113d7939291906120f4565b600060405180830381600087803b1580156113f157600080fd5b505af1158015611405573d6000803e3d6000fd5b5050505080600201548473ffffffffffffffffffffffffffffffffffffffff16847fd0bb1eaea8ab6cd0c288f209757734c5e280d8f4e05f93b1db82da8db727875833600087876005015460006040516114639594939291906120a1565b60405180910390a45060018081905550505050565b6000600a60008381526020019081526020016000206005015490506000600a60008481526020019081526020016000206002015490503482146114f0576040517f08c379a00000000000000000000000000000000000000000000000000000000081526004016114e79061220d565b60405180910390fd5b600a600084815260200190815260200160002060030160009054906101000a900473ffffffffffffffffffffffffffffffffffffffff1673ffffffffffffffffffffffffffffffffffffffff166108fc839081150290604051600060405180830381858888f1935050505015801561156c573d6000803e3d6000fd5b508373ffffffffffffffffffffffffffffffffffffffff166323b872dd3033846040518463ffffffff1660e01b81526004016115aa939291906120f4565b600060405180830381600087803b1580156115c457600080fd5b505af11580156115d8573d6000803e3d6000fd5b5050505033600a600085815260200190815260200160002060040160006101000a81548173ffffffffffffffffffffffffffffffffffffffff021916908373ffffffffffffffffffffffffffffffffffffffff1602179055506001600a600085815260200190815260200160002060070160006101000a81548160ff02191690831515021790555061166a6003611a2e565b600560009054906101000a900473ffffffffffffffffffffffffffffffffffffffff1673ffffffffffffffffffffffffffffffffffffffff166108fc6006549081150290604051600060405180830381858888f193505050501580156116d4573d6000803e3d6000fd5b50600860003373ffffffffffffffffffffffffffffffffffffffff1673ffffffffffffffffffffffffffffffffffffffff168152602001908152602001600020600081548092919061172590612378565b919050555060096000848152602001908152602001600020339080600181540180825580915050600190039060005260206000200160009091909190916101000a81548173ffffffffffffffffffffffffffffffffffffffff021916908373ffffffffffffffffffffffffffffffffffffffff16021790555050505050565b6117ac611b6c565b600a600083815260200190815260200160002060405180610100016040529081600082015481526020016001820160009054906101000a900473ffffffffffffffffffffffffffffffffffffffff1673ffffffffffffffffffffffffffffffffffffffff1673ffffffffffffffffffffffffffffffffffffffff168152602001600282015481526020016003820160009054906101000a900473ffffffffffffffffffffffffffffffffffffffff1673ffffffffffffffffffffffffffffffffffffffff1673ffffffffffffffffffffffffffffffffffffffff1681526020016004820160009054906101000a900473ffffffffffffffffffffffffffffffffffffffff1673ffffffffffffffffffffffffffffffffffffffff1673ffffffffffffffffffffffffffffffffffffffff16815260200160058201548152602001600682015481526020016007820160009054906101000a900460ff1615151515815250509050919050565b60006119236002611a20565b905090565b611930611a44565b73ffffffffffffffffffffffffffffffffffffffff1661194e611120565b73ffffffffffffffffffffffffffffffffffffffff16146119a4576040517f08c379a000000000000000000000000000000000000000000000000000000000815260040161199b9061218d565b60405180910390fd5b600073ffffffffffffffffffffffffffffffffffffffff168173ffffffffffffffffffffffffffffffffffffffff161415611a14576040517f08c379a0000000000000000000000000000000000000000000000000000000008152600401611a0b9061216d565b60405180910390fd5b611a1d81611a4c565b50565b600081600001549050919050565b6001816000016000828254019250508190555050565b600033905090565b60008060009054906101000a900473ffffffffffffffffffffffffffffffffffffffff169050816000806101000a81548173ffffffffffffffffffffffffffffffffffffffff021916908373ffffffffffffffffffffffffffffffffffffffff1602179055508173ffffffffffffffffffffffffffffffffffffffff168173ffffffffffffffffffffffffffffffffffffffff167f8be0079c531659141344cd1fd0a4f28419497f9722a3daafe3b4186f6b6457e060405160405180910390a35050565b60008160000154905060008111611b5c576040517f08c379a0000000000000000000000000000000000000000000000000000000008152600401611b539061214d565b60405180910390fd5b6001810382600001819055505050565b60405180610100016040528060008152602001600073ffffffffffffffffffffffffffffffffffffffff16815260200160008152602001600073ffffffffffffffffffffffffffffffffffffffff168152602001600073ffffffffffffffffffffffffffffffffffffffff16815260200160008152602001600081526020016000151581525090565b600081359050611c048161255b565b92915050565b600081359050611c1981612572565b92915050565b600060208284031215611c3157600080fd5b6000611c3f84828501611bf5565b91505092915050565b60008060408385031215611c5b57600080fd5b6000611c6985828601611bf5565b9250506020611c7a85828601611c0a565b9150509250929050565b600080600060608486031215611c9957600080fd5b6000611ca786828701611bf5565b9350506020611cb886828701611c0a565b9250506040611cc986828701611c0a565b9150509250925092565b600060208284031215611ce557600080fd5b6000611cf384828501611c0a565b91505092915050565b6000611d088383611ed1565b6101008301905092915050565b611d1e816122f4565b82525050565b611d2d816122f4565b82525050565b611d3c816122e2565b82525050565b611d4b816122e2565b82525050565b6000611d5c82612274565b611d66818561228c565b9350611d7183612264565b8060005b83811015611da2578151611d898882611cfc565b9750611d948361227f565b925050600181019050611d75565b5085935050505092915050565b611db881612306565b82525050565b611dc781612306565b82525050565b611dd68161233c565b82525050565b6000611de9601b8361229d565b9150611df4826123f0565b602082019050919050565b6000611e0c60268361229d565b9150611e1782612419565b604082019050919050565b6000611e2f60208361229d565b9150611e3a82612468565b602082019050919050565b6000611e5260248361229d565b9150611e5d82612491565b604082019050919050565b6000611e75601f8361229d565b9150611e80826124e0565b602082019050919050565b6000611e98601c8361229d565b9150611ea382612509565b602082019050919050565b6000611ebb60208361229d565b9150611ec682612532565b602082019050919050565b61010082016000820151611ee86000850182612015565b506020820151611efb6020850182611d33565b506040820151611f0e6040850182612015565b506060820151611f216060850182611d15565b506080820151611f346080850182611d15565b5060a0820151611f4760a0850182612015565b5060c0820151611f5a60c0850182612015565b5060e0820151611f6d60e0850182611daf565b50505050565b61010082016000820151611f8a6000850182612015565b506020820151611f9d6020850182611d33565b506040820151611fb06040850182612015565b506060820151611fc36060850182611d15565b506080820151611fd66080850182611d15565b5060a0820151611fe960a0850182612015565b5060c0820151611ffc60c0850182612015565b5060e082015161200f60e0850182611daf565b50505050565b61201e81612332565b82525050565b61202d81612332565b82525050565b60006020820190506120486000830184611d42565b92915050565b600060a0820190506120636000830188611d24565b6120706020830187611d24565b61207d6040830186612024565b61208a6060830185611dcd565b6120976080830184611dbe565b9695505050505050565b600060a0820190506120b66000830188611d24565b6120c36020830187611d24565b6120d06040830186612024565b6120dd6060830185612024565b6120ea6080830184611dbe565b9695505050505050565b60006060820190506121096000830186611d42565b6121166020830185611d42565b6121236040830184612024565b949350505050565b600060208201905081810360008301526121458184611d51565b905092915050565b6000602082019050818103600083015261216681611ddc565b9050919050565b6000602082019050818103600083015261218681611dff565b9050919050565b600060208201905081810360008301526121a681611e22565b9050919050565b600060208201905081810360008301526121c681611e45565b9050919050565b600060208201905081810360008301526121e681611e68565b9050919050565b6000602082019050818103600083015261220681611e8b565b9050919050565b6000602082019050818103600083015261222681611eae565b9050919050565b6000610100820190506122436000830184611f73565b92915050565b600060208201905061225e6000830184612024565b92915050565b6000819050602082019050919050565b600081519050919050565b6000602082019050919050565b600082825260208201905092915050565b600082825260208201905092915050565b60006122b982612332565b91506122c483612332565b9250828210156122d7576122d66123c1565b5b828203905092915050565b60006122ed82612312565b9050919050565b60006122ff82612312565b9050919050565b60008115159050919050565b600073ffffffffffffffffffffffffffffffffffffffff82169050919050565b6000819050919050565b600061234782612332565b9050919050565b600061235982612332565b9150600082141561236d5761236c6123c1565b5b600182039050919050565b600061238382612332565b91507fffffffffffffffffffffffffffffffffffffffffffffffffffffffffffffffff8214156123b6576123b56123c1565b5b600182019050919050565b7f4e487b7100000000000000000000000000000000000000000000000000000000600052601160045260246000fd5b7f436f756e7465723a2064656372656d656e74206f766572666c6f770000000000600082015250565b7f4f776e61626c653a206e6577206f776e657220697320746865207a65726f206160008201527f6464726573730000000000000000000000000000000000000000000000000000602082015250565b7f4f776e61626c653a2063616c6c6572206973206e6f7420746865206f776e6572600082015250565b7f5072696365206d75737420626520657175616c20746f206c697374696e67207060008201527f7269636500000000000000000000000000000000000000000000000000000000602082015250565b7f5265656e7472616e637947756172643a207265656e7472616e742063616c6c00600082015250565b7f5072696365206d757374206265206174206c6561737420312077656900000000600082015250565b7f506c65617365207375626d697420746865207265717569726564207072696365600082015250565b612564816122e2565b811461256f57600080fd5b50565b61257b81612332565b811461258657600080fd5b5056fea2646970667358221220f835f1ef2201f2a142da44a5ac77a207b1b11c9adef0836947a155a895ade56064736f6c63430008040033",
  "linkReferences": {},
  "deployedLinkReferences": {}
}