{
  "_format": "hh-sol-artifact-1",
  "contractName": "CockFighter",
  "sourceName": "src/contracts/NFT/CockFighter.sol",
  "abi": [
    {
      "inputs": [
        {
          "internalType": "enum CockFighter.Breed",
          "name": "_breed",
          "type": "uint8"
        },
        {
          "components": [
            {
              "internalType": "uint64",
              "name": "strength",
              "type": "uint64"
            },
            {
              "internalType": "uint64",
              "name": "speed",
              "type": "uint64"
            },
            {
              "internalType": "uint64",
              "name": "agility",
              "type": "uint64"
            }
          ],
          "internalType": "struct CockFighter.BreedAttributes",
          "name": "_attributes",
          "type": "tuple"
        }
      ],
      "name": "getBreed",
      "outputs": [
        {
          "components": [
            {
              "internalType": "uint64",
              "name": "strength",
              "type": "uint64"
            },
            {
              "internalType": "uint64",
              "name": "speed",
              "type": "uint64"
            },
            {
              "internalType": "uint64",
              "name": "agility",
              "type": "uint64"
            }
          ],
          "internalType": "struct CockFighter.BreedAttributes",
          "name": "",
          "type": "tuple"
        }
      ],
      "stateMutability": "view",
      "type": "function"
    }
  ],
  "bytecode": "0x6080604052603c6000556010600155600154600a6200001f9190620003c5565b6002556040518060600160405280600367ffffffffffffffff168152602001600a67ffffffffffffffff168152602001600a67ffffffffffffffff16815250600360008201518160000160006101000a81548167ffffffffffffffff021916908367ffffffffffffffff16021790555060208201518160000160086101000a81548167ffffffffffffffff021916908367ffffffffffffffff16021790555060408201518160000160106101000a81548167ffffffffffffffff021916908367ffffffffffffffff16021790555050506040518060600160405280600567ffffffffffffffff168152602001600567ffffffffffffffff168152602001600567ffffffffffffffff16815250600460008201518160000160006101000a81548167ffffffffffffffff021916908367ffffffffffffffff16021790555060208201518160000160086101000a81548167ffffffffffffffff021916908367ffffffffffffffff16021790555060408201518160000160106101000a81548167ffffffffffffffff021916908367ffffffffffffffff16021790555050506040518060600160405280600a67ffffffffffffffff168152602001600767ffffffffffffffff168152602001600567ffffffffffffffff16815250600560008201518160000160006101000a81548167ffffffffffffffff021916908367ffffffffffffffff16021790555060208201518160000160086101000a81548167ffffffffffffffff021916908367ffffffffffffffff16021790555060408201518160000160106101000a81548167ffffffffffffffff021916908367ffffffffffffffff16021790555050506040518060600160405280600f67ffffffffffffffff168152602001600767ffffffffffffffff168152602001600767ffffffffffffffff16815250600660008201518160000160006101000a81548167ffffffffffffffff021916908367ffffffffffffffff16021790555060208201518160000160086101000a81548167ffffffffffffffff021916908367ffffffffffffffff16021790555060408201518160000160106101000a81548167ffffffffffffffff021916908367ffffffffffffffff16021790555050503480156200036357600080fd5b5062000548565b6000808291508390505b6001851115620003bc578086048111156200039457620003936200050c565b5b6001851615620003a45780820291505b8081029050620003b4856200053b565b945062000374565b94509492505050565b6000620003d28262000502565b9150620003df8362000502565b92506200040e7fffffffffffffffffffffffffffffffffffffffffffffffffffffffffffffffff848462000416565b905092915050565b600082620004285760019050620004fb565b81620004385760009050620004fb565b81600181146200045157600281146200045c5762000492565b6001915050620004fb565b60ff8411156200047157620004706200050c565b5b8360020a9150848211156200048b576200048a6200050c565b5b50620004fb565b5060208310610133831016604e8410600b8410161715620004cc5782820a905083811115620004c657620004c56200050c565b5b620004fb565b620004db84848460016200036a565b92509050818404811115620004f557620004f46200050c565b5b81810290505b9392505050565b6000819050919050565b7f4e487b7100000000000000000000000000000000000000000000000000000000600052601160045260246000fd5b60008160011c9050919050565b61080980620005586000396000f3fe608060405234801561001057600080fd5b506004361061002b5760003560e01c8063b327a31b14610030575b600080fd5b61004a600480360381019061004591906105ed565b610060565b604051610057919061067a565b60405180910390f35b610068610524565b610070610524565b600060038111156100aa577f4e487b7100000000000000000000000000000000000000000000000000000000600052602160045260246000fd5b8460038111156100e3577f4e487b7100000000000000000000000000000000000000000000000000000000600052602160045260246000fd5b14156101935760066040518060600160405290816000820160009054906101000a900467ffffffffffffffff1667ffffffffffffffff1667ffffffffffffffff1681526020016000820160089054906101000a900467ffffffffffffffff1667ffffffffffffffff1667ffffffffffffffff1681526020016000820160109054906101000a900467ffffffffffffffff1667ffffffffffffffff1667ffffffffffffffff16815250509050610481565b600160038111156101cd577f4e487b7100000000000000000000000000000000000000000000000000000000600052602160045260246000fd5b846003811115610206577f4e487b7100000000000000000000000000000000000000000000000000000000600052602160045260246000fd5b14156102b65760056040518060600160405290816000820160009054906101000a900467ffffffffffffffff1667ffffffffffffffff1667ffffffffffffffff1681526020016000820160089054906101000a900467ffffffffffffffff1667ffffffffffffffff1667ffffffffffffffff1681526020016000820160109054906101000a900467ffffffffffffffff1667ffffffffffffffff1667ffffffffffffffff16815250509050610480565b600260038111156102f0577f4e487b7100000000000000000000000000000000000000000000000000000000600052602160045260246000fd5b846003811115610329577f4e487b7100000000000000000000000000000000000000000000000000000000600052602160045260246000fd5b14156103d95760046040518060600160405290816000820160009054906101000a900467ffffffffffffffff1667ffffffffffffffff1667ffffffffffffffff1681526020016000820160089054906101000a900467ffffffffffffffff1667ffffffffffffffff1667ffffffffffffffff1681526020016000820160109054906101000a900467ffffffffffffffff1667ffffffffffffffff1667ffffffffffffffff1681525050905061047f565b60036040518060600160405290816000820160009054906101000a900467ffffffffffffffff1667ffffffffffffffff1667ffffffffffffffff1681526020016000820160089054906101000a900467ffffffffffffffff1667ffffffffffffffff1667ffffffffffffffff1681526020016000820160109054906101000a900467ffffffffffffffff1667ffffffffffffffff1667ffffffffffffffff168152505090505b5b5b82600001518160000181815161049791906106ba565b91509067ffffffffffffffff16908167ffffffffffffffff16815250508260200151816020018181516104ca91906106ba565b91509067ffffffffffffffff16908167ffffffffffffffff16815250508260400151816040018181516104fd91906106ba565b91509067ffffffffffffffff16908167ffffffffffffffff16815250508091505092915050565b6040518060600160405280600067ffffffffffffffff168152602001600067ffffffffffffffff168152602001600067ffffffffffffffff1681525090565b600081359050610572816107ac565b92915050565b60006060828403121561058a57600080fd5b6105946060610695565b905060006105a4848285016105d8565b60008301525060206105b8848285016105d8565b60208301525060406105cc848285016105d8565b60408301525092915050565b6000813590506105e7816107bc565b92915050565b6000806080838503121561060057600080fd5b600061060e85828601610563565b925050602061061f85828601610578565b9150509250929050565b60608201600082015161063f600085018261066b565b506020820151610652602085018261066b565b506040820151610665604085018261066b565b50505050565b610674816106f8565b82525050565b600060608201905061068f6000830184610629565b92915050565b600061069f6106b0565b90506106ab828261070c565b919050565b6000604051905090565b60006106c5826106f8565b91506106d0836106f8565b92508267ffffffffffffffff038211156106ed576106ec61073d565b5b828201905092915050565b600067ffffffffffffffff82169050919050565b6107158261079b565b810181811067ffffffffffffffff821117156107345761073361076c565b5b80604052505050565b7f4e487b7100000000000000000000000000000000000000000000000000000000600052601160045260246000fd5b7f4e487b7100000000000000000000000000000000000000000000000000000000600052604160045260246000fd5b6000601f19601f8301169050919050565b600481106107b957600080fd5b50565b6107c5816106f8565b81146107d057600080fd5b5056fea26469706673582212204baf5e7679355e666110b81599afcec79fb03325621223f5f7578dcb5e6ce75564736f6c63430008040033",
  "linkReferences": {},
  "deployedLinkReferences": {}
}